:1000000058C07CC0A8C07AC0BBC578C077C076C0D5
:1000100075C074C073C072C071C070C06FC004037B
:1000200009041C0364006900670069007300740020
:1000300075006D0070002E0063006F006D001003EE
:100040004400690067006900550053004200120136
:10005000100100000008C016DF05000101020001C8
:10006000090222000101008032090400000103009E
:100070000000092101010001221600070581030883
:10008000000A0600FF0901A101150026FF007508FE
:1000900095010900B20201C00037003800360101A5
:1000A0000101010101020408102001030000000009
:1000B0006C0511241FBECFE5D2E0DEBFCDBF10E03E
:1000C000A0E6B0E0E2E6F4E102C005900D92A43BA8
:1000D000B107D9F712E0A4EBB0E001C01D92A8303F
:1000E000B107E1F710E0C2EBD0E003C02297FE01B8
:1000F000B2D9C03BD107D1F795D6B1C981CFA82FCE
:10010000B92F80E090E041E050EA609530E009C00E
:100110002D9182279795879510F084279527305E3B
:10012000C8F36F5FA8F30895EADF8D939D93089558
:10013000A6E088279927AA9569F00197E1F3B3997A
:10014000FCCFB39BFECF81E09927A6B3019611F0B7
:10015000A871D9F70895CF93CFB7CF93C395B39B29
:10016000E9F7B39B10C0B39B0EC0B39B0CC0B39B0D
:100170000AC0B39B08C0B39B06C0C091EB01C395F6
:10018000C093EB01D5C00F92DF93C091EA01DD2748
:10019000CE50DE4F012EB39B03C0DF910F90E1CF15
:1001A0002F930F931F934F932FEF4F6F06B303FBC4
:1001B00020F95F933F9350E03BE065C016B3012602
:1001C000502953FDC89556B3012703FB25F92F731A
:1001D00006B3B1F05027102713FB26F906B22230E0
:1001E000F0F000C016B3012703FB27F901265029C0
:1001F00006B22430E8F54F77206816B30000F6CF3A
:1002000050274F7D206206B2102F000000C006B3B9
:1002100000265029102713FB26F906B2E2CF4F7BA8
:1002200006B3206400C0DACF01265029187106B247
:1002300069F14E7F2160012F16B328C00026502996
:100240004D7F06B22260102F29C0012650294B7F16
:1002500006B22460012F2DC016B301265029477F16
:100260002860000006B22EC04F7E06B3206130C069
:10027000422706B3499300265029102706B24FEFB4
:1002800013FB20F9297F16B379F2187159F1012671
:10029000502906B2012703FB21F9237F06B371F22F
:1002A000002650293150D0F006B2102713FB22F956
:1002B000277E16B351F201265029012703FB06B20F
:1002C00023F92F7C49F2000006B3102713FB24F911
:1002D0000026502906B22F7939F270CF10E21ABFEA
:1002E000002719C03B503195C31BD04010E21ABF04
:1002F0000881033C09F10B34F9F02091E8011981E0
:10030000110F1213EDCF4A81441F093651F10D32FE
:1003100011F0013E29F70093F0013F915F914F9159
:100320001F910F912F91DF910F90CAB7C5FD16CF86
:10033000CF91CFBFCF9118952091F001222369F37F
:100340001091EE01112379F534307AF13093EE01FA
:100350002093E9011091EA013BE0311B3093EA015F
:1003600024C00091EE010130F4F40AE54F7049F425
:100370003091A80034FD1AC00093A800C1EDD1E06F
:1003800019C03091DC0134FD11C00093DC01CDEDCA
:10039000D1E010C0052710E000C021C0052710E003
:1003A000C89508BB14C03AE501C032ED032EC0E089
:1003B000D0E032E017B31861C39A08B317BB58E115
:1003C00020E84FEF20FF052708BB279517951C3F16
:1003D00028F700004552B0F720FF0527279508BBF6
:1003E00017951C3FB8F629913A9561F7077E109151
:1003F000EF01110F08BBC250D04011F01093E8017B
:1004000010E21ABF086017B3177E402F477E54E0F2
:100410005A95F1F708BB17BB48BB7FCFCF93DF934B
:1004200080E061E0A6D481E061E0A3D480EC91E0BB
:1004300098D3C0E0D0E080E060E0BFD481E060E02D
:10044000BCD468EC70E080E090E0EED380E061E046
:10045000B4D481E060E0B1D468EC70E080E090E07A
:10046000E3D380E060E0A9D481E061E0A6D468EC49
:1004700070E080E090E0D8D380E061E09ED481E03D
:1004800061E09BD468EC70E080E090E0CDD380E048
:1004900060E093D481E061E090D468EC70E080E0AB
:1004A00090E0C2D380E061E088D481E060E085D450
:1004B00068EC70E080E090E0B7D380E060E07DD44D
:1004C00081E060E07AD468EC70E080E090E0ACD34A
:1004D0002196C430D10509F0AECFDF91CF910895B8
:1004E000AF92BF92CF92DF92EF92FF920F931F9342
:1004F00081E01BD47C019093B5008093B40081E02F
:1005000014D45C010027F7FC0095102FC801B70137
:1005100060D623E333E343E35FE3E7D67B018C015B
:10052000CC24B7FCC094DC2CC601B50152D62AE914
:1005300039E949E95EE3D9D69B01AC01C801B701AD
:10054000B1D52FE135E84BE65EE3CFD60FD69B0160
:100550007093B5006093B400633571051CF480E0BE
:1005600060E007C0CB0183559040CB9730F480E02A
:1005700061E023D481E060E015C0C9018E5890404D
:10058000869718F480E060E00AC0C901845B90405F
:10059000CC9718F0213F310534F080E061E00DD4B4
:1005A00081E061E00AD41F910F91FF90EF90DF90FE
:1005B000CF90BF90AF90089580EC91E0C2D1892B8D
:1005C00009F452C080EC91E0CFD18736910509F053
:1005D0004BC080EC91E060E670E05FD42091B40005
:1005E0003091B500233531052CF480EC91E064E7BF
:1005F00070E025C0C90183559040CB9728F480EC6A
:1006000091E068E770E01BC0C9018E589040869762
:1006100028F480EC91E061E870E011C0C901845BCE
:100620009040CC9728F480EC91E066E870E007C039
:10063000213F31052CF080EC91E06FE870E02DD483
:1006400080EC91E067E970E028D46091B40070918B
:10065000B50080EC91E04AE050E0F1D480EC91E00C
:1006600066EA70E015D5089580EC91E04AE050E02C
:1006700060E070E044D2A0CF33DF9EDF0895EF92B8
:10068000FF920F931F93CF93DF9380E8F82E00E043
:10069000C0E0D0E0102F1F0D11BF4ADD29E08433E8
:1006A00092070CF0102FF6942196C830D10511F066
:1006B000012FF0CF115011BF1F5F7C01C12FD0E07F
:1006C000219610C035DD8453994097FF03C0909563
:1006D00081959F4F8E159F0514F411B77C0181B74A
:1006E0008F5F81BF81B790E0C817D9075CF711BF52
:1006F000DF91CF911F910F91FF90EF900895AC9AE9
:100700008BB780628BBF8BE48093DD018AE5809399
:10071000DC0108951F93CF93DF939091EE019350E6
:1007200097FDA5C02091EA018091E9018D3209F081
:100730009CC0983009F099C0CCE0D0E0C21BD10930
:10074000CE50DE4F83EC8093D1018AE58093A800E0
:100750001092B7008881807621F0CE017AD1282FBF
:100760007BC09A811092DA018981882321F410924A
:10077000DB0122E06BC0853019F49093EF0165C076
:10078000863009F04EC08B81813041F48EE490E0D8
:100790009093ED018093EC0122E13FC0823041F45F
:1007A00080E690E09093ED018093EC0122E235C069
:1007B0008330F1F4992341F48EE190E09093ED01C0
:1007C0008093EC0124E029C0913041F482E290E072
:1007D0009093ED018093EC012CE11FC09230E1F485
:1007E0008EE390E09093ED018093EC0120E115C041
:1007F000813241F482E790E09093ED018093EC0127
:1008000029E00BC0823241F482E890E09093ED0140
:100810008093EC0126E101C020E080E48093B700E2
:100820001BC0883021F421E081EF91E011C08930B4
:1008300019F49093F10109C08A3011F421E006C047
:100840008B3019F48BE48093DD0120E08AED91E098
:100850009093ED018093EC018F81882321F48E81A8
:10086000821708F4282F2093A9001092EE0180919E
:10087000A80084FF49C08091A9008F3F09F444C0BB
:10088000182F893008F018E0811B8093A90080910F
:10089000D10198E889278093D101112341F120915A
:1008A000EC013091ED018091B70086FF0DC0A2ED03
:1008B000B1E080E090E0F901E80FF91FE491ED93D9
:1008C00001961817C1F708C0912FD901E2EDF1E0A8
:1008D0008D9181939150E1F71150812F90E01F5F2E
:1008E0000196820F931F9093ED018093EC0182EDAE
:1008F00091E0612F19DC612F6C5F6C3019F08FEF84
:100900008093A9006093A80094E186B3887131F4C4
:100910009150D9F71092EF011092E80110E099235D
:1009200009F411E08091B600811739F0112319F410
:10093000F894A5DE78941093B600DF91CF911F91C3
:100940000895DC011296ED91FC911397E058FF4F4A
:100950008191919180589F4F20813181821B930B0F
:1009600060E870E02DD50895CF93DF93DC011296F7
:10097000ED91FC911397EF01CE57DF4F48815981DC
:10098000E058FF4F80819181E058F040841795072F
:1009900019F42FEF3FEF0BC0E40FF51F2081CA01C0
:1009A000019660E870E00CD59983888330E0C90136
:1009B000DF91CF9108950F931F93CF93DF93462F2D
:1009C000DC011496ED91FC9115978F0100581F4F93
:1009D000D801CD91DC91CE01019660E870E0F0D4B1
:1009E0009C01EE57FF4F80819181E258F04028171B
:1009F000390719F420E030E008C0EC0FFD1F4083F8
:100A0000F8013183208321E030E0C901DF91CF91EB
:100A10001F910F9108954091BE015091BF018091A7
:100A2000BC019091BD018417950719F42FEF3FEF9A
:100A30000EC0FA01E45CFE4F2081CA01019660E815
:100A400070E0BED49093BF018093BE0130E0C90135
:100A50000895FC01808180768032E1F581818130CA
:100A6000E1F48091BC019091BD0180589F4F20918D
:100A7000BE013091BF01821B930B60E870E0A0D4EF
:100A8000892B41F1C8DF8093C60186EC91E09093F9
:100A9000ED018093EC0181E008958930D9F444811F
:100AA000E0913801F0913901CF01019660E870E0E2
:100AB00087D49C0180913A0190913B012817390716
:100AC00049F0E854FF4F40833093390120933801B7
:100AD00080E0089580E008958EEA90E09093C1014F
:100AE0008093C00188EB90E09093C3018093C20192
:100AF0008CE391E09093C5018093C40108956F92B7
:100B00007F928F929F92AF92BF92CF92DF92EF929D
:100B1000FF920F931F933A014B0178D05B016C0158
:100B20000EC074D07B018C01A61AB70AC80AD90A74
:100B30006A0C7B1C8C1C9D1CEDDD57016801161492
:100B40001704180419046CF31F910F91FF90EF9094
:100B5000DF90CF90BF90AF909F908F907F906F90DD
:100B60000895F894CCDDBB9A20E042E251EA03C03C
:100B7000CA010197F1F72150D9F7BB9878940895ED
:100B800078941F920F920FB60F9211242F933F93D8
:100B90008F939F93AF93BF938091CB019091CC01A2
:100BA000A091CD01B091CE013091CF01232F2458D7
:100BB0002D3720F02D570196A11DB11D2093CF0197
:100BC0008093CB019093CC01A093CD01B093CE0143
:100BD0008091C7019091C801A091C901B091CA014B
:100BE0000196A11DB11D8093C7019093C801A093E8
:100BF000C901B093CA01BF91AF919F918F913F916D
:100C00002F910F900FBE0F901F9018958FB7F894EB
:100C10002091CB013091CC014091CD015091CE017A
:100C20008FBFB901CA0108959B01AC017FB7F89449
:100C30008091C7019091C801A091C901B091CA01EA
:100C40006FB508B602FE05C06F3F19F00196A11DF1
:100C5000B11D7FBFBA2FA92F982F8827860F911D0E
:100C6000A11DB11D62E0880F991FAA1FBB1F6A95C5
:100C7000D1F7BC012EC0FFB7F8948091C7019091C5
:100C8000C801A091C901B091CA01EFB508B602FE32
:100C900005C0EF3F19F00196A11DB11DFFBFBA2F8E
:100CA000A92F982F88278E0F911DA11DB11DE2E05D
:100CB000880F991FAA1FBB1FEA95D1F7861B970BB8
:100CC000885E9340C0F2215030404040504068510F
:100CD0007C4F211531054105510569F60895789439
:100CE00080B7806880BF80B7806480BF8CB5806427
:100CF0008CBD8FEF8DBD80B7807F876080BF89B747
:100D0000846089BF83B7887F83BF8AB58C7F816009
:100D10008ABD83B7877F83BF83B7887F836083BFA4
:100D200086B1876086B9379A0895482F863008F0D3
:100D300046508091D00127B1382F3295330F330FB1
:100D4000307C2F72322B90E084709070969587954E
:100D5000969587958295807F382B37B987B1807FAC
:100D6000842B87B9369A3699FECF24B135B1C901A3
:100D70000895482F50E0CA018C559F4FFC012491E3
:100D800042565F4FFA0184918823B1F0E82FF0E0DA
:100D9000E856FF4FE491F0E0662341F49FB7F894E2
:100DA00080812095822380839FBF08959FB7F89408
:100DB0008081822B80839FBF0895282F482F50E089
:100DC000CA018C559F4FFC01349142565F4FFA0186
:100DD0009491992331F1222319F48AB58F7304C0B9
:100DE000213021F48AB58F7C8ABD05C0243019F4E6
:100DF0008CB58F7C8CBDE92FF0E0E656FF4FE49177
:100E0000F0E0662341F49FB7F89480813095832306
:100E100080839FBF08959FB7F8948081832B808340
:100E20009FBF08955CDFFADA27DCFECF0F931F9394
:100E3000CF93DF938C01EB0109C02196D801ED918E
:100E4000FC910190F081E02DC8010995688166232D
:100E5000A1F7DF91CF911F910F910895EF92FF922B
:100E60000F931F93CF93DF938C017B01EA010CC09A
:100E7000D7016D917D01D801ED91FC910190F08138
:100E8000E02DC80109952197209791F7DF91CF9127
:100E90001F910F91FF90EF900895DC01ED91FC916F
:100EA0000280F381E02D099508952F923F924F9291
:100EB0005F926F927F928F929F92AF92BF92CF92EA
:100EC000DF92EF92FF920F931F93DF93CF93CDB7F3
:100ED000DEB7A0970FB6F894DEBF0FBECDBF1C01E2
:100EE0006A017B01411551056105710541F440E33B
:100EF00050E060E070E020E030E06DD053C0882426
:100F000099245401422E55246624772401E010E0F0
:100F10000C0F1D1F080D191DC701B601A301920179
:100F200062D2F80160830894811C911CA11CB11C41
:100F3000C701B601A301920156D2C901DA016C01C1
:100F40007D01C114D104E104F10401F781E0E82E30
:100F5000F12CEC0EFD1EE80CF91C3E010894611CFE
:100F6000711CD501C4010197A109B1096C01C81810
:100F7000D90815C0F601EE0DFF1D40814A3010F46E
:100F8000405D01C0495C552747FD5095652F752F81
:100F9000C10120E030E01FD00894E108F1086E1490
:100FA0007F0441F7A0960FB6F894DEBF0FBECDBF09
:100FB000CF91DF911F910F91FF90EF90DF90CF9035
:100FC000BF90AF909F908F907F906F905F904F9069
:100FD0003F902F900895EF92FF920F931F93CF931E
:100FE000DF93EC017A018B012115310541F4E88191
:100FF000F9810190F081E02D642F099519C02A3004
:101000003105A9F477FF0FC04DE250E060E070E0D9
:1010100020E030E0E0DF10950095F094E094E11CD2
:10102000F11C011D111DCE01B801A7012AE03DDF11
:10103000DF91CF911F910F91FF90EF900895EF9264
:10104000FF920F931F937B019A010027F7FC0095F5
:10105000102FB801A701BFDF1F910F91FF90EF90F4
:1010600008950F931F938C014DE050E060E070E015
:1010700020E030E0B0DFC8014AE050E060E070E01E
:1010800020E030E0A8DF82E090E01F910F9108950A
:101090000F931F938C0101DFC801E3DF1F910F91B4
:1010A00008955058BB27AA270ED0E5C0D6D030F0FF
:1010B000DBD020F031F49F3F11F41EF4CBC00EF4CE
:1010C000E095E7FBC1C0E92FE7D080F3BA176207CC
:1010D00073078407950718F071F49EF5FFC00EF4AE
:1010E000E0950B2EBA2FA02D0B01B90190010C0138
:1010F000CA01A0011124FF27591B99F0593F50F450
:10110000503E68F11A16F040A22F232F342F4427A7
:10111000585FF3CF469537952795A795F04053959F
:10112000C9F77EF41F16BA0B620B730B840BBAF06F
:101130009150A1F0FF0FBB1F661F771F881FC2F7DA
:101140000EC0BA0F621F731F841F48F487957795EE
:101150006795B795F7959E3F08F0B3CF9395880FA5
:1011600008F09927EE0F97958795089504D0689415
:10117000B111B5C0089598D088F09F5790F0B92F5D
:101180009927B751A0F0D1F0660F771F881F991FDC
:101190001AF0BA95C9F712C0B13081F09FD0B1E012
:1011A00008959CC0672F782F8827B85F39F0B93F22
:1011B000CCF3869577956795B395D9F73EF49095DE
:1011C0008095709561957F4F8F4F9F4F0895E8945C
:1011D00009C097FB3EF490958095709561957F4F7F
:1011E0008F4F9F4F9923A9F0F92F96E9BB2793952D
:1011F000F695879577956795B795F111F8CFFAF43D
:10120000BB0F11F460FF1BC06F5F7F4F8F4F9F4F6D
:1012100016C0882311F096E911C0772321F09EE8CB
:10122000872F762F05C0662371F096E8862F70E031
:1012300060E02AF09A95660F771F881FDAF7880F0B
:101240009695879597F9089597F99F6780E870E0DC
:1012500060E008959FEF80EC089500240A9416162C
:10126000170618060906089500240A941216130694
:10127000140605060895092E0394000C11F4882322
:1012800052F0BB0F40F4BF2B11F460FF04C06F5F3E
:101290007F4F8F4F9F4F089557FD9058440F551F14
:1012A00059F05F3F71F04795880F97FB991F61F0E8
:1012B0009F3F79F087950895121613061406551F5F
:1012C000F2CF4695F1DF08C0161617061806991FCB
:1012D000F1CF86957105610508940895E894BB27C0
:1012E00066277727CB0197F908950AD0C4CFB5DFD9
:1012F00028F0BADF18F0952309F0A6CFABCFEFCFD7
:10130000CBDFA8F39923D9F35523C9F3950F50E008
:10131000551FAA27EE27FF27BB27002408946795AF
:1013200020F4E20FF31FB41F0A1E220F331F441FC5
:10133000AA1F6695A9F7779530F4F30FB41F0A1E1C
:10134000121E08F46395330F441FAA1F221F7695BF
:1013500099F7879520F4B40F0A1E121E631F440FDD
:10136000AA1F221F331F8695A9F7862F712D602D86
:1013700011249F5750408AF0E1F088234AF0EE0F85
:10138000FF1FBB1F661F771F881F91505040A9F792
:101390009E3F510570F058CFA2CF5F3FECF3983ECF
:1013A000DCF3869577956795B795F795E7959F5FF9
:1013B000C1F7FE2B880F911D9695879597F9089593
:1013C00097FB092E07260AD077FD04D02ED006D031
:1013D00000201AF4709561957F4F0895F6F7909567
:1013E00081959F4F0895A1E21A2EAA1BBB1BFD01F8
:1013F0000DC0AA1FBB1FEE1FFF1FA217B307E407F4
:10140000F50720F0A21BB30BE40BF50B661F771F4B
:10141000881F991F1A9469F760957095809590952B
:101420009B01AC01BD01CF010895AA1BBB1B51E17B
:1014300007C0AA1FBB1FA617B70710F0A61BB70B44
:10144000881F991F5A95A9F780959095BC01CD01E9
:101450000895EE0FFF1F0590F491E02D0994F89484
:02146000FFCFBC
:101462007B226578706F737572655F6C6576656CEB
:10147200223A22006C6F77006D6F64657261746549
:1014820000686967680076657279686967680065EF
:10149200787472656D6500222C227265616C5F64DE
:1014A200617461223A007D005AFF00000000DB04F3
:0414B20016072E07E4
:00000001FF
