:1000000054C078C0A4C076C0AFC574C073C072C0FD
:1000100071C070C06FC06EC06DC06CC06BC0090293
:1000200022000101008032090400000103000000E9
:100030000921010100012216000705810308000AB9
:100040001201100100000008C016DF0500010102C6
:100050000001100344006900670069005500530067
:1000600042001C03640069006700690073007400AB
:1000700075006D0070002E0063006F006D000403BA
:1000800009040600FF0901A101150026FF007508FB
:1000900095010900B20201C001020408102001010B
:1000A0000101010100380037920511241FBECFE580
:1000B000D2E0DEBFCDBF10E0A0E6B0E0E6EFF3E1B6
:1000C00002C005900D92AE3AB107D9F722E0AEEA30
:1000D000B0E001C01D92A230B207E1F710E0CAEA19
:1000E000D0E003C02297FE0180D9C83AD107D1F7EA
:1000F0009ED77FC985CFA82FB92F80E090E041E03F
:1001000050EA609530E009C02D9182279795879538
:1001100010F084279527305EC8F36F5FA8F3089529
:10012000EADF8D939D930895A6E088279927AA95E5
:1001300069F00197E1F3B399FCCFB39BFECF81E067
:100140009927A6B3019611F0A871D9F70895CF9316
:10015000CFB7CF93C395B39BE9F7B39B10C0B39BC5
:100160000EC0B39B0CC0B39B0AC0B39B08C0B39B2B
:1001700006C0C091E501C395C093E501D5C00F92BB
:10018000DF93C091E401DD27C451DE4F012EB39B04
:1001900003C0DF910F90E1CF2F930F931F934F93E5
:1001A0002FEF4F6F06B303FB20F95F933F9350E0AF
:1001B0003BE065C016B30126502953FDC89556B3E0
:1001C000012703FB25F92F7306B3B1F05027102741
:1001D00013FB26F906B22230F0F000C016B3012757
:1001E00003FB27F90126502906B22430E8F54F77A2
:1001F000206816B30000F6CF50274F7D206206B26C
:10020000102F000000C006B300265029102713FB52
:1002100026F906B2E2CF4F7B06B3206400C0DACFE6
:1002200001265029187106B269F14E7F2160012F15
:1002300016B328C0002650294D7F06B22260102F29
:1002400029C0012650294B7F06B22460012F2DC002
:1002500016B301265029477F2860000006B22EC041
:100260004F7E06B3206130C0422706B34993002673
:100270005029102706B24FEF13FB20F9297F16B340
:1002800079F2187159F10126502906B2012703FBB2
:1002900021F9237F06B371F2002650293150D0F0A6
:1002A00006B2102713FB22F9277E16B351F201265E
:1002B0005029012703FB06B223F92F7C49F20000E5
:1002C00006B3102713FB24F90026502906B22F7914
:1002D00039F270CF10E21ABF002719C03B50319598
:1002E000C31BD04010E21ABF0881033C09F10B3454
:1002F000F9F02091E2011981110F1213EDCF4A811B
:10030000441F093651F10D3211F0013E29F70093D7
:10031000EA013F915F914F911F910F912F91DF91D2
:100320000F90CAB7C5FD16CFCF91CFBFCF9118950B
:100330002091EA01222369F31091E801112379F554
:1003400034307AF13093E8012093E3011091E40115
:100350003BE0311B3093E40124C00091E8010130FF
:10036000F4F40AE54F7049F43091670034FD1AC087
:1003700000936700CBECD1E019C03091D60134FD79
:1003800011C00093D601C7EDD1E010C0052710E0E1
:1003900000C021C0052710E0C89508BB14C03AE58D
:1003A00001C032ED032EC0E0D0E032E017B3186197
:1003B000C39A08B317BB58E120E84FEF20FF052789
:1003C00008BB279517951C3F28F700004552B0F74A
:1003D00020FF0527279508BB17951C3FB8F62991E4
:1003E0003A9561F7077E1091E901110F08BBC250E1
:1003F000D04011F01093E20110E21ABF086017B369
:10040000177E402F477E54E05A95F1F708BB17BB83
:1004100048BB7FCF83EB90E0F0D2892B09F44AC030
:1004200083EB90E0FDD28736910509F043C068E682
:1004300070E083EB90E00FD58091AE009091AF001B
:10044000833591051CF46CE770E008C09C012355CE
:1004500031092B33310530F460E870E083EB90E034
:10046000FAD415C09C012E5831092632310518F4F2
:100470006DE870E0F3CF9C01245B31092C3331052A
:1004800018F469E870E0EACF803F910529F762E946
:1004900070E083EB90E0DFD46091AE007091AF002C
:1004A0004AE050E083EB90E0A0D562EA70E083EB95
:1004B00090E0B5C54AE050E060E070E083EB90E08A
:1004C00062D2A8CFCF92DF92EF92FF920F931F9349
:1004D000CF93DF9381E0FCD38C019093AF008093A6
:1004E000AE0081E0F5D3EC01B801882777FD809557
:1004F000982F39D623E333E343E35FE3C0D66B01A0
:100500007C01BE01882777FD8095982F2CD62AE99B
:1005100039E949E95EE3B3D69B01AC01C701B601F5
:100520008BD52FE135E84BE65EE3A9D6E9D59B01F3
:100530007093AF006093AE006335710514F460E012
:1005400007C0AB01435551094B33510528F461E015
:1005500080E013D460E00EC06E58710966327105F8
:1005600010F460E004C0203F310571F061E080E0EC
:1005700004D461E081E0DF91CF911F910F91FF9052
:10058000EF90DF90CF90F9C3DF91CF911F910F9142
:10059000FF90EF90DF90CF900895CF93DF9361E0CD
:1005A00080E0B4D361E081E0B1D383EB90E0DBD1B4
:1005B000C4E0D0E060E080E0E0D360E081E0DDD343
:1005C00068EC70E080E090E046D361E080E0D5D355
:1005D00060E081E0D2D368EC70E080E090E03BD353
:1005E00060E080E0CAD361E081E0C7D368EC70E0EE
:1005F00080E090E030D361E080E0BFD361E081E053
:10060000BCD368EC70E080E090E025D360E080E04F
:10061000B4D361E081E0B1D368EC70E080E090E0B9
:100620001AD361E080E0A9D360E081E0A6D368EC52
:1006300070E080E090E00FD360E080E09ED360E067
:1006400081E09BD368EC70E080E090E004D32197D8
:1006500009F0B0CFDF91CF91089534DFDBCEDF9288
:10066000EF92FF920F931F93CF93DF93C8E0D0E0F8
:10067000F12C80E8E82EDF2CDE0CD1BE55DD8C019C
:10068000043389E018070CF4FD2CE694219799F7C0
:100690008FEF8F0D81BFCF2DD0E0219681B790E0F5
:1006A000C817D9078CF040DD8453994097FF03C0E9
:1006B0009195819591098017910714F4F1B68C01F9
:1006C00081B78F5F81BFEACFF1BEDF91CF911F91DC
:1006D0000F91FF90EF90DF900895CF93DF9380917B
:1006E000E801835087FDA8C09091E4012091E301C7
:1006F0002D3209F09FC0883009F09CC0CCE0D0E0DA
:10070000C91BD109C451DE4F83EC8093CB018AE52C
:10071000809367001092B1008881807619F0CE0135
:10072000CCD17FC09A811092D4018981811106C0F9
:100730001092D50124ED31E082E06FC0853019F4CC
:100740009093E90167C0863009F04EC08B818130FB
:1007500041F480E490E09093E7018093E60182E128
:100760003FC0823041F48EE190E09093E7018093A6
:10077000E60182E235C08330F1F4911108C08EE7C2
:1007800090E09093E7018093E60184E029C09130E6
:1007900041F482E690E09093E7018093E6018CE1DA
:1007A0001FC09230E1F482E590E09093E7018093DE
:1007B000E60180E115C0813241F480E390E090933E
:1007C000E7018093E60189E00BC0823241F482E8C0
:1007D00090E09093E7018093E60186E101C080E01C
:1007E00090E49093B1001DC0883069F0893019F40D
:1007F0009093EB010FC08A3049F08B3059F48BE4B1
:100800008093D70107C02BEE31E002C024ED31E028
:1008100081E003C024ED31E080E03093E7012093D4
:10082000E6019F81911104C09E81981708F4892FD9
:10083000809366001092E8018091670084FF46C0B3
:10084000809166008F3F09F441C0C82F893008F0BD
:10085000C8E08C1B809366008091CB0198E88927C3
:100860008093CB01CC2331F12091E6013091E70157
:100870008091B10086FF0BC0ACECB1E0F9018C2F88
:100880008A0F94919D9331968A13FBCF09C0D901A9
:10089000ECECF1E08C2F8E0F9D9191938E13FCCF99
:1008A0008FEF8C0F90E00196820F931F9093E701DA
:1008B0008093E6016C2F8CEC91E032DCCC5FCC3085
:1008C00019F08FEF80936600C093670084E196B3C0
:1008D000987131F48150D9F71092E9011092E20138
:1008E000C1E08111C0E08091B0008C1739F0C111D6
:1008F00003C0F894B4DE7894C093B000DF91CF9138
:100900000895AC9A8BB780628BBF8BE48093D7013C
:100910008AE58093D60108951F93CF93DF93162F16
:10092000FC0124813581F901E058FF4FC081D1815C
:10093000CE01019660E870E00DD5D901AE57BF4FEA
:100940004D915C918417950741F0C20FD31F188316
:100950009183808381E090E002C080E090E0DF91AD
:10096000CF911F910895F894CCDFBB9A80E081501D
:1009700039F0E1E2F1EA3197F1F700C00000F7CF7A
:10098000BB98789408958F929F92AF92BF92CF9226
:10099000DF92EF92FF92CF93DF9300D000D0CDB7DC
:1009A000DEB76A017B0127D14B015C011C141D04D9
:1009B0001E041F049CF41FD1C61AD70AE80AF90ABC
:1009C000C80CD91CEA1CFB1C69837A838B839C832B
:1009D00084DE69817A818B819C81E6CF0F900F90B4
:1009E0000F900F90DF91CF91FF90EF90DF90CF901D
:1009F000BF90AF909F908F900895FC01228133812A
:100A0000F901E058FF4F8081918180589F4F3296C5
:100A100020813181821B930B60E870E09BD40895A4
:100A2000FC0122813381F901EE57FF4F80819181D2
:100A3000D901A058BF4F4D915C914817590769F0F3
:100A4000D901A80FB91F2C91019660E870E082D4FB
:100A500091838083822F90E008958FEF9FEF089518
:100A60008091390190913A0180589F4F20913B012C
:100A700030913C01821B930B60E870E06BD40895C9
:100A800080913B0190913C012091390130913A01D4
:100A90002817390779F0FC01E754FF4F20810196B0
:100AA00060E870E057D490933C0180933B01822F23
:100AB00090E008958FEF9FEF0895CF93FC01808120
:100AC0008076803259F5C181C13069F4C9DF892B44
:100AD00029F1D6DF8093B20022EB30E03093E701BA
:100AE0002093E6011CC0C930C9F4E4812091BD0106
:100AF0003091BE01C901019660E870E02BD44091AD
:100B0000BF015091C0018417950741F0D901A35C42
:100B1000BE4FEC939093BE018093BD01C0E08C2F3B
:100B2000CF91089588EA90E09093B4008093B30049
:100B30008DE391E09093B6008093B50089EB90E04F
:100B40009093B8008093B700089583B7887F83BFE0
:100B50008AB58C7F81608ABD83B7877F83BF83B767
:100B6000887F836083BF089578941F920F920FB699
:100B70000F9211242F933F938F939F93AF93BF9323
:100B80008091C2019091C301A091C401B091C501AF
:100B90003091C1012CE7230F2D3728F02FEF230FC1
:100BA0000196A11DB11D2093C1018093C2019093B4
:100BB000C301A093C401B093C5018091C601909177
:100BC000C701A091C801B091C9010196A11DB11D35
:100BD0008093C6019093C701A093C801B093C90147
:100BE000BF91AF919F918F913F912F910F900FBE29
:100BF0000F901F9018952FB7F8946091C2017091D3
:100C0000C3018091C4019091C5012FBF08953FB7E2
:100C1000F8948091C6019091C701A091C801B0914C
:100C2000C9012FB508B602FE05C02F3F19F0019685
:100C3000A11DB11D3FBF6627782F892F9A2F620F04
:100C4000711D811D911D42E0660F771F881F991F3E
:100C50004A95D1F70895CF92DF92EF92FF92CF930A
:100C6000DF936B017C01D3DFEB01C114D104E104FC
:100C7000F10471F0CCDF6C1B7D0B683E7340A8F370
:100C800081E0C81AD108E108F108C851DC4FEDCF66
:100C9000DF91CF91FF90EF90DF90CF9008957894FF
:100CA00080B7806880BF80B7806480BF8CB5806467
:100CB0008CBD8FEF8DBD80B7807F876080BF89B787
:100CC000846089BF42DF86B1876086B9379A08950C
:100CD000863008F086503091CA0127B1932F929543
:100CE000990F990F907C2F72922B32FB332730F99A
:100CF0003295307F932B97B997B1907F982B97B906
:100D0000369A3699FECF84B195B10895CF93DF938B
:100D100090E0FC01E856FF4F2491FC01E256FF4FA2
:100D20008491882339F190E0FC01EA55FF4FA491AA
:100D3000B0E0FC01EC55FF4F8491611106C09FB7F4
:100D4000F8948C912095822313C0623069F4C82FE7
:100D5000D0E09FB7F8948C91322F309583238C93F9
:100D60008881822B888305C09FB7F8948C91822B51
:100D70008C939FBFDF91CF910895A82FB0E0FD0124
:100D8000E856FF4F9491FD01E256FF4FE491EE23A8
:100D900011F1811103C08AB58F7304C0813021F431
:100DA0008AB58F7C8ABD05C0843019F48CB58F7CE0
:100DB0008CBDF0E0EC55FF4FA491B0E02FB761116E
:100DC00005C0F8948C919095892303C0F8948C9178
:100DD000892B8C932FBF08950F931F93CF93DF938D
:100DE000EC018B01F80161918F01662341F0E881EC
:100DF000F9810190F081E02DCE010995F3CFDF91CB
:100E0000CF911F910F910895EF92FF920F931F932F
:100E1000CF93DF937C018A01EB01060F171FC017E8
:100E2000D10751F06991D701ED91FC910190F081CA
:100E3000E02DC7010995F3CFDF91CF911F910F915D
:100E4000FF90EF900895DC01ED91FC910190F0810D
:100E5000E02D642F0994DC01ED91FC910280F38177
:100E6000E02D09944F925F926F927F928F929F92A2
:100E7000AF92BF92CF92DF92EF92FF920F931F93A8
:100E8000CF93DF93CDB7DEB7A0970FB6F894DEBF50
:100E90000FBECDBF5C014115510561057105D9F447
:100EA00040E350E060E070E0A0960FB6F894DEBF3B
:100EB0000FBECDBFDF91CF911F910F91FF90EF90AB
:100EC000DF90CF90BF90AF909F908F907F906F906A
:100ED0005F904F90B8CF8E010F5F1F4FC12CD12C68
:100EE00076014801422E512C612C712C8FEFC81ACB
:100EF000D80AE80AF80ACB01BA01A30192013DD24F
:100F0000CA01F80161938F01A901BC014115510586
:100F10006105710559F7F1E0CF1AD108E108F10830
:100F2000F401EC0DFD1D80818A3010F440E301C016
:100F300047E3480F552747FD5095652F752FC5018D
:100F400082DF81E0C81AD108E108F108EFEFCE1680
:100F5000DE06EE06FE0621F7A0960FB6F894DEBF79
:100F60000FBECDBFDF91CF911F910F91FF90EF90FA
:100F7000DF90CF90BF90AF909F908F907F906F90B9
:100F80005F904F900895CF92DF92EF92FF92CF93B0
:100F9000DF93EC016A017B012115310539F4DF9102
:100FA000CF91FF90EF90DF90CF904DCF2A30310559
:100FB00091F477FF0FC020E030E04DE250E060E0B8
:100FC00070E0E1DFF094E094D094C094C11CD11C97
:100FD000E11CF11C2AE0B701A601CE01DF91CF91FF
:100FE000FF90EF90DF90CF903DCF9A01AB01662745
:100FF00057FD6095762FC7CFCF93DF93EC014DE07F
:1010000050E060E070E01FDF4AE050E060E070E038
:10101000CE0119DF82E090E0DF91CF910895CF9368
:10102000DF93EC0118DFCE01DF91CF91E5CF37DE02
:10103000B4DA13DBFECF5058BB27AA270ED0E5C089
:10104000D6D030F0DBD020F031F49F3F11F41EF405
:10105000CBC00EF4E095E7FBC1C0E92FE7D080F3E9
:10106000BA17620773078407950718F071F49EF5A5
:10107000FFC00EF4E0950B2EBA2FA02D0B01B90185
:1010800090010C01CA01A0011124FF27591B99F0FE
:10109000593F50F4503E68F11A16F040A22F232F0A
:1010A000342F4427585FF3CF469537952795A7955A
:1010B000F0405395C9F77EF41F16BA0B620B730B01
:1010C000840BBAF09150A1F0FF0FBB1F661F771F72
:1010D000881FC2F70EC0BA0F621F731F841F48F427
:1010E000879577956795B795F7959E3F08F0B3CFAD
:1010F0009395880F08F09927EE0F97958795089597
:1011000004D06894B111B5C0089598D088F09F5765
:1011100090F0B92F9927B751A0F0D1F0660F771F43
:10112000881F991F1AF0BA95C9F712C0B13081F023
:101130009FD0B1E008959CC0672F782F8827B85FB3
:1011400039F0B93FCCF3869577956795B395D9F784
:101150003EF490958095709561957F4F8F4F9F4F8E
:101160000895E89409C097FB3EF49095809570959A
:1011700061957F4F8F4F9F4F9923A9F0F92F96E9E3
:10118000BB279395F695879577956795B795F11158
:10119000F8CFFAF4BB0F11F460FF1BC06F5F7F4FF5
:1011A0008F4F9F4F16C0882311F096E911C0772307
:1011B00021F09EE8872F762F05C0662371F096E810
:1011C000862F70E060E02AF09A95660F771F881FDF
:1011D000DAF7880F9695879597F9089597F99F679D
:1011E00080E870E060E008959FEF80EC08950024AF
:1011F0000A941616170618060906089500240A947C
:1012000012161306140605060895092E0394000C01
:1012100011F4882352F0BB0F40F4BF2B11F460FF90
:1012200004C06F5F7F4F8F4F9F4F089557FD9058B9
:10123000440F551F59F05F3F71F04795880F97FB9A
:10124000991F61F09F3F79F0879508951216130654
:101250001406551FF2CF4695F1DF08C01616170683
:101260001806991FF1CF86957105610508940895B8
:10127000E894BB2766277727CB0197F908950AD012
:10128000C4CFB5DF28F0BADF18F0952309F0A6CF58
:10129000ABCFEFCFCBDFA8F39923D9F35523C9F315
:1012A000950F50E0551FAA27EE27FF27BB270024E4
:1012B0000894679520F4E20FF31FB41F0A1E220F53
:1012C000331F441FAA1F6695A9F7779530F4F30FD3
:1012D000B41F0A1E121E08F46395330F441FAA1F81
:1012E000221F769599F7879520F4B40F0A1E121ED7
:1012F000631F440FAA1F221F331F8695A9F7862F4D
:10130000712D602D11249F5750408AF0E1F0882301
:101310004AF0EE0FFF1FBB1F661F771F881F9150FB
:101320005040A9F79E3F510570F058CFA2CF5F3FC4
:10133000ECF3983EDCF3869577956795B795F7952E
:10134000E7959F5FC1F7FE2B880F911D96958795B6
:1013500097F9089597FB072E16F4009406D077FDB1
:1013600008D02DD007FC05D03EF4909581959F4F75
:101370000895709561957F4F0895A1E21A2EAA1BDA
:10138000BB1BFD010DC0AA1FBB1FEE1FFF1FA21735
:10139000B307E407F50720F0A21BB30BE40BF50B32
:1013A000661F771F881F991F1A9469F760957095BB
:1013B000809590959B01AC01BD01CF010895AA1BBA
:1013C000BB1B51E107C0AA1FBB1FA617B70710F030
:1013D000A61BB70B881F991F5A95A9F78095909562
:1013E000BC01CD010895EE0FFF1F0590F491E02D93
:0613F0000994F894FFCF00
:1013F600000002028000FF5A7B226578706F7375C9
:1014060072655F6C6576656C223A22006C6F7700B8
:101416006D6F646572617465007665727968696777
:10142600680022202C227265616C5F6461746122FF
:0E1436003A007D00000000008C04EC06040764
:00000001FF
