:1000000067C08BC0B7C089C064C787C086C085C0C1
:1000100084C083C082C081C080C07FC07EC0040312
:1000200009041C0364006900670069007300740020
:1000300075006D0070002E0063006F006D002203DC
:10004000440069006700690073007000610072007D
:100050006B002000530065007200690061006C00B5
:100060001201100102000008D0167E0800010102F2
:10007000000109024300020100803209040000016E
:1000800002020100052400100104240202052406D6
:1000900000010524010301070583030800FF09048B
:1000A0000100020A00000007050102080000070520
:1000B000810208000000370038003601010101010B
:1000C0000101020408102001030000000000CF0518
:1000D00011241FBECFE5D2E0DEBFCDBF10E0A0E609
:1000E000B0E0E6E6F7E102C005900D92A83CB1074A
:1000F000D9F711E0A8ECB0E001C01D92AD37B1070F
:10010000E1F710E0C0EDD0E003C02297FE0125DB4F
:10011000CE3CD107D1F72FD824CB72CFA82FB92F3F
:1001200080E090E041E050EA609530E009C02D9118
:1001300082279795879510F084279527305EC8F31E
:100140006F5FA8F30895EADF8D939D930895A6E06D
:1001500088279927AA9569F00197E1F3B399FCCF15
:10016000B39BFECF81E09927A6B3019611F0A87149
:10017000D9F70895CF93CFB7CF93C395B39BE9F742
:10018000B39B0BC0B39B09C0B39B07C0B39B05C017
:10019000B39B03C0B39B01C0D8C00F92DF93C09143
:1001A0005401DD27C55ADE4F012EB39B03C0DF91FA
:1001B0000F90E6CF2F930F931F934F932FEF4F6F17
:1001C00006B303FB20F95F933F9350E03BE065C02B
:1001D00016B30126502953FDC89556B3012703FBDA
:1001E00025F92F7306B3B1F05027102713FB26F91A
:1001F00006B22230F0F000C016B3012703FB27F946
:100200000126502906B22430E8F54F77206816B34E
:100210000000F6CF50274F7D206206B2102F00005D
:1002200000C006B300265029102713FB26F906B29A
:10023000E2CF4F7B06B3206400C0DACF01265029FD
:10024000187106B269F14E7F2160012F16B328C0E4
:10025000002650294D7F06B22260102F29C00126AA
:1002600050294B7F06B22460012F2DC016B3012602
:100270005029477F2860000006B22EC04F7E06B38B
:10028000206130C0422706B3499300265029102729
:1002900006B24FEF13FB20F9297F16B379F21871DC
:1002A00059F10126502906B2012703FB21F9237FCA
:1002B00006B371F2002650293150D0F006B2102753
:1002C00013FB22F9277E16B351F20126502901278C
:1002D00003FB06B223F92F7C49F2000006B3102776
:1002E00013FB24F90026502906B22F7939F270CF7A
:1002F00010E21ABF00271CC03B503195C31BD040F1
:1003000010E21ABF0881033C21F10B3411F1209156
:1003100052011981110F1213EDCF4A81441F093682
:1003200069F10D3211F0013E29F74F7009F0042FE9
:10033000009359013F915F914F911F910F912F9120
:10034000DF910F90CAB7C5FD18CFCF91CFBFCF9126
:10035000189520915901222369F310915701112317
:10036000D1F53430D2F130935701209353011091DD
:1003700054013BE0311B309354012FC000915701D1
:1003800001304CF50AE54F7049F43091A90034FD75
:1003900025C00093A900CBE3D1E024C0433049F04D
:1003A0003091460134FD1AC000934601C7E4D1E004
:1003B00019C03091710134FD11C000937101C2E781
:1003C000D1E010C0052710E000C021C0052710E0D3
:1003D000C89508BB14C03AE501C032ED032EC0E059
:1003E000D0E032E017B31861C39A08B317BB58E1E5
:1003F00020E84FEF20FF052708BB279517951C3FE6
:1004000028F700004552B0F720FF0527279508BBC5
:1004100017951C3FB8F629913A9561F7077E109120
:100420005801110F08BBC250D04011F01093520177
:1004300010E21ABF086017B3177E402F477E54E0C2
:100440005A95F1F708BB17BB48BB74CFCF93DF9326
:1004500080E061E037D681E061E034D68DEC90E059
:100460002BD5C0E0D0E080E060E050D681E060E0D5
:100470004DD668EC70E080E090E07FD580E061E0F0
:1004800045D681E060E042D668EC70E080E090E024
:1004900074D580E060E03AD681E061E037D668EC60
:1004A00070E080E090E069D580E061E02FD681E0E7
:1004B00061E02CD668EC70E080E090E05ED580E0F2
:1004C00060E024D681E061E021D668EC70E080E055
:1004D00090E053D580E061E019D681E060E016D667
:1004E00068EC70E080E090E048D580E060E00ED6F7
:1004F00081E060E00BD668EC70E080E090E03DD5F4
:100500002196C430D10509F0AECFDF91CF91089587
:10051000AF92BF92CF92DF92EF92FF920F931F9311
:1005200081E0ACD57C019093C9008093C80081E044
:10053000A5D55C010027F7FC0095102FC801B70175
:10054000F1D723E333E343E35FE378D87B018C0106
:10055000CC24B7FCC094DC2CC601B501E3D72AE952
:1005600039E949E95EE36AD89B01AC01C801B701EA
:1005700042D72FE135E84BE65EE360D8A0D79B0178
:100580007093C9006093C800633571051CF480E066
:1005900060E007C0CB0183559040CB9730F480E0FA
:1005A00061E0B4D581E060E015C0C9018E5890408B
:1005B000869718F480E060E00AC0C901845B90402F
:1005C000CC9718F0213F310534F080E061E09ED5F2
:1005D00081E061E09BD51F910F91FF90EF90DF903C
:1005E000CF90BF90AF9008958DEC90E094D3892B7D
:1005F00009F450C08DEC90E055D3873609F04AC01D
:100600008DEC90E060E670E0F1D52091C80030916B
:10061000C900233531052CF48DEC90E064E770E0DF
:1006200025C0C90183559040CB9728F48DEC90E00C
:1006300068E770E01BC0C9018E589040869728F487
:100640008DEC90E061E870E011C0C901845B9040DE
:10065000CC9728F48DEC90E066E870E007C0213F6D
:1006600031052CF08DEC90E06FE870E0BFD58DEC9B
:1006700090E067E970E0BAD56091C8007091C90058
:100680008DEC90E04AE050E083D68DEC90E067EA94
:1006900070E0A7D68DEC90E044E650E060E070E0BA
:1006A00091D3089535DFA0DF0895EF92FF920F9365
:1006B0001F93CF93DF9380E8F82E00E0C0E0D0E0F6
:1006C000102F1F0D11BF43DD29E0843392070CF07A
:1006D000102FF6942196C830D10511F0012FF0CFDC
:1006E000115011BF1F5F7C01C12FD0E0219610C0B7
:1006F0002EDD8453994097FF03C0909581959F4FBD
:100700008E159F0514F411B77C0181B78F5F81BFEF
:1007100081B790E0C817D9075CF711BFDF91CF917F
:100720001F910F91FF90EF900895AC9A8BB7806264
:100730008BBF8BE480934701809372018AE580939D
:1007400046018093710108951F93DC01162F80915B
:10075000710184FF07C08091720198E88927809316
:10076000720103C08AE580937101912FE3E7F1E004
:100770008D91819391501916DCF383E791E0612FFD
:10078000E2DC1C5F109371011F9108951F93DC013F
:10079000162F8091460184FF07C08091470198E899
:1007A00089278093470103C08AE580934601912FF2
:1007B000E8E4F1E08D91819391501916DCF388E41F
:1007C00091E0612FC0DC1C5F109346011F910895DA
:1007D0001F93CF93DF9360915701635067FDB2C0C1
:1007E00080915401CCE0D0E0C81BD109C55ADE4F3E
:1007F00080915301803118F4CE018AD19DC08D3291
:1008000009F08AC0683009F097C083EC80933B01FF
:100810008AE58093A9001092CB008881807621F030
:10082000CE0153D1282F65C09A811092440189814D
:10083000882321F41092450122E054C0853019F438
:10084000909358014EC08630B1F58B81813041F4D0
:1008500080E690E0909356018093550122E127C0F5
:10086000823021F4CE011CD1282F21C08330F1F435
:10087000992341F48EE190E09093560180935501C5
:1008800024E015C0913041F482E290E0909356014B
:10089000809355012CE10BC0923041F48EE390E03F
:1008A000909356018093550122E201C020E080E43C
:1008B0008093CB001EC0883021F421E08AE591E0CE
:1008C00013C0893019F490935A010BC08A3011F487
:1008D00021E008C08B3029F48BE48093470180939A
:1008E000720120E084E491E09093560180935501D9
:1008F00009C02F3F39F4888187FD2E8180E88093DD
:10090000CB0006C08F81882319F48E81821708F0EE
:10091000822F8093AA0010C08091CB0087FF0CC06B
:10092000CE01F4D08F3F21F48EE18093A90004C062
:10093000882311F01092AA0080915701181614F420
:10094000109257018091A90084FF58C08091AA009D
:100950008F3F09F453C0182F893008F018E0811B2D
:100960008093AA0080913B0198E8892780933B01FE
:10097000112391F18091CB0087FF08C08CE391E0B7
:10098000612FC2D0182F893098F526C020915501CB
:100990003091560186FF0DC0ACE3B1E080E090E0FD
:1009A000F901E80FF91FE491ED9301961817C1F7CB
:1009B00008C0912FD901ECE3F1E08D918193915022
:1009C000E1F71150812F90E01F5F0196820F931F76
:1009D00090935601809355018CE391E0612FB3DB36
:1009E000612F6C5F6C3041F08FEF8093AA0004C0E0
:1009F0008FEF8093AA006EE16093A90094E186B323
:100A0000887131F49150D9F7109258011092520127
:100A100010E0992309F411E08091CA00811739F0A0
:100A2000112319F4F89441DE78941093CA00DF91F1
:100A3000CF911F910895F89481E191E09093D000B7
:100A40008093CF009093D2008093D1009093D400F4
:100A50008093D30080969093D6008093D50080E257
:100A600090E09093D8008093D7001092DA00109213
:100A7000D900789408952FB7F8948091D900909177
:100A8000DA002FBF892B19F420E030E007C0E09195
:100A9000D100F091D2008081282F30E0C901089563
:100AA000FC018381813049F480E690E09093560107
:100AB0008093550180916000089582E790E09093C3
:100AC00056018093550183E40895FC012081822F13
:100AD00080768032B9F49181892F8052823010F46F
:100AE0008FEF0895923239F48091DB00882319F456
:100AF00082E08093DB0027FD05C081E08093CC007D
:100B000080E0089580E0089587E0089581E00895E9
:100B1000DC0140E035C08FB7F8942091D9003091C6
:100B2000DA008FBF8091D7009091D800281739073D
:100B300029F18C91E091CF00F091D0008193F09356
:100B4000D000E093CF008091D5009091D600E817B7
:100B5000F90741F48091D3009091D4009093D00094
:100B60008093CF002FB7F8948091D9009091DA004C
:100B700001969093DA008093D9002FBF4F5F1196B2
:100B8000461748F22FB7F8948091D9009091DA0077
:100B90002FBF089718F08FEF80935701089589EBC6
:100BA00090E09093CE008093CD00089511DE1DC09B
:100BB0008091E1009091E2009093E0008093DF004B
:100BC0008FB7F8942091E7003091E8002150304031
:100BD0003093E8002093E7008FBFE42FF0E0E75167
:100BE000FF4F50834F5F4093DC002FB7F894809104
:100BF000E7009091E8002FBF892B09F447C040918E
:100C0000DC00493008F042C0E091DF00F091E000E4
:100C10005191F093E000E093DF008091E300909128
:100C2000E400E817F90761F6C3CF8091CC00882370
:100C300039F089EE90E060E0A9DD1092CC000EC0A2
:100C40006091DC00662351F089EE90E09FDD109208
:100C5000570181E08093CC001092DC009091DB0082
:100C60009923C9F08091710184FF15C0923021F45D
:100C70008BEA90E068E003C083EB90E062E064DD23
:100C80008091DB0081508093DB00089580914601C4
:100C900084FDCBCFE3CF0895EDE1F0E13197F1F79B
:100CA00085DF0895AC012FB7F8948091D900909119
:100CB000DA002FBF892B29F4CA01EEDF20E030E0F3
:100CC00028C0CA01E9DFE091D100F091D200319152
:100CD000F093D200E093D1008091D5009091D6009E
:100CE000E817F90741F48091D3009091D4009093D4
:100CF000D2008093D1002FB7F8948091D9009091C1
:100D0000DA0001979093DA008093D9002FBF232F48
:100D100030E0C9010895C0DF2FB7F8948091D90061
:100D20009091DA002FBF0895F89488B3877E88BB2E
:100D3000BB9A84EC99E02CE931E0F9013197F1F7A5
:100D40000197D9F7BB98F1DC81EF90E09093DE003A
:100D50008093DD009093E0008093DF009093E200A9
:100D60008093E10080969093E4008093E30020E27A
:100D700030E03093E6002093E5001092E8001092F6
:100D8000E70081E191E09093D0008093CF009093B1
:100D9000D2008093D1009093D4008093D3008096AA
:100DA0009093D6008093D5003093D8002093D7003D
:100DB0001092DA001092D9001092DB001092CC0051
:100DC000789408956F927F928F929F92AF92BF9284
:100DD000CF92DF92EF92FF920F931F93CF93DF9307
:100DE000EC015A016B01BBD03B014C010FC0B7D0E5
:100DF0007B018C01A60CB71CC81CD91CA61AB70A0B
:100E0000C80AD90ACE0148DF370148011A141B0469
:100E10001C041D0464F3DF91CF911F910F91FF908B
:100E2000EF90DF90CF90BF90AF909F908F907F908A
:100E30006F900895AC018FB7F8942091E70030913E
:100E4000E8008FBF8091E5009091E60028173907F0
:100E500029F4CA0121DF20E030E02CC0E091DD0060
:100E6000F091DE006193F093DE00E093DD0080916D
:100E7000E3009091E400E817F90741F48091E10064
:100E80009091E2009093DE008093DD002FB7F894FC
:100E90008091E7009091E80001969093E80080939C
:100EA000E7002FBFCA0145E050E060E070E08ADF54
:100EB00021E030E0C90108950F931F938C0134DFC6
:100EC000C80144EF51E060E070E07CDF1F910F91BA
:100ED000089578941F920F920FB60F9211242F93BA
:100EE0003F938F939F93AF93BF93809135019091E0
:100EF0003601A0913701B091380130913901232F8B
:100F000024582D3720F02D570196A11DB11D209397
:100F100039018093350190933601A0933701B09346
:100F200038018091310190913201A0913301B0914B
:100F300034010196A11DB11D8093310190933201BE
:100F4000A0933301B0933401BF91AF919F918F91E2
:100F50003F912F910F900FBE0F901F9018958FB754
:100F6000F89420913501309136014091370150912C
:100F700038018FBFB901CA0108959B01AC017FB749
:100F8000F8948091310190913201A0913301B09198
:100F900034016FB508B602FE05C06F3F19F0019627
:100FA000A11DB11D7FBFBA2FA92F982F8827860FAB
:100FB000911DA11DB11D62E0880F991FAA1FBB1FC3
:100FC0006A95D1F7BC012EC0FFB7F894809131012A
:100FD00090913201A0913301B0913401EFB508B680
:100FE00002FE05C0EF3F19F00196A11DB11DFFBF24
:100FF000BA2FA92F982F88278E0F911DA11DB11DE3
:10100000E2E0880F991FAA1FBB1FEA95D1F7861B44
:10101000970B885E9340C0F22150304040405040D2
:1010200068517C4F211531054105510569F6089538
:10103000789480B7806880BF80B7806480BF8CB5AB
:1010400080648CBD8FEF8DBD80B7807F876080BF4F
:1010500089B7846089BF83B7887F83BF8AB58C7F57
:1010600081608ABD83B7877F83BF83B7887F8360B2
:1010700083BF86B1876086B9379A0895482F863036
:1010800008F0465080913A0127B1382F3295330F3E
:10109000330F307C2F72322B90E0847090709695D5
:1010A0008795969587958295807F382B37B987B13C
:1010B000807F842B87B9369A3699FECF24B135B11B
:1010C000C9010895482F50E0CA018F539F4FFC017A
:1010D000249145545F4FFA0184918823B1F0E82FA1
:1010E000F0E0EB54FF4FE491F0E0662341F49FB74A
:1010F000F89480812095822380839FBF08959FB7B5
:10110000F8948081822B80839FBF0895282F482FD9
:1011100050E0CA018F539F4FFC01349145545F4FFB
:10112000FA019491992331F1222319F48AB58F732E
:1011300004C0213021F48AB58F7C8ABD05C02430DB
:1011400019F48CB58F7C8CBDE92FF0E0E954FF4F8A
:10115000E491F0E0662341F49FB7F89480813095E4
:10116000832380839FBF08959FB7F8948081832B4A
:1011700080839FBF08955CDF69D994DAFECF0F9317
:101180001F93CF93DF938C01EB0109C02196D80107
:10119000ED91FC910190F081E02DC80109956881E5
:1011A0006623A1F7DF91CF911F910F910895EF92E0
:1011B000FF920F931F93CF93DF938C017B01EA0182
:1011C0000CC0D7016D917D01D801ED91FC9101908A
:1011D000F081E02DC80109952197209791F7DF91C3
:1011E000CF911F910F91FF90EF900895DC01ED9149
:1011F000FC910280F381E02D099508952F923F9292
:101200004F925F926F927F928F929F92AF92BF9216
:10121000CF92DF92EF92FF920F931F93DF93CF93C2
:10122000CDB7DEB7A0970FB6F894DEBF0FBECDBF27
:101230001C016A017B01411551056105710541F4ED
:1012400040E350E060E070E020E030E06DD053C05B
:10125000882499245401422E55246624772401E0E1
:1012600010E00C0F1D1F080D191DC701B601A301C9
:1012700092014FD2F80160830894811C911CA11C3B
:10128000B11CC701B601A301920143D2C901DA0121
:101290006C017D01C114D104E104F10401F781E086
:1012A000E82EF12CEC0EFD1EE80CF91C3E01089412
:1012B000611C711CD501C4010197A109B1096C0120
:1012C000C818D90815C0F601EE0DFF1D40814A303F
:1012D00010F4405D01C0495C552747FD5095652FCE
:1012E000752FC10120E030E01FD00894E108F1081B
:1012F0006E147F0441F7A0960FB6F894DEBF0FBEC0
:10130000CDBFCF91DF911F910F91FF90EF90DF90B4
:10131000CF90BF90AF909F908F907F906F905F9095
:101320004F903F902F900895EF92FF920F931F934D
:10133000CF93DF93EC017A018B012115310541F444
:10134000E881F9810190F081E02D642F099519C0A1
:101350002A303105A9F477FF0FC04DE250E060E07C
:1013600070E020E030E0E0DF10950095F094E0942C
:10137000E11CF11C011D111DCE01B801A7012AE0DD
:101380003DDFDF91CF911F910F91FF90EF90089576
:10139000EF92FF920F931F937B019A010027F7FCB6
:1013A0000095102FB801A701BFDF1F910F91FF908B
:1013B000EF9008950F931F938C014DE050E060E093
:1013C00070E020E030E0B0DFC8014AE050E060E0CB
:1013D00070E020E030E0A8DF82E090E01F910F9104
:1013E00008950F931F938C0101DFC801E3DF1F9164
:1013F0000F9108955058BB27AA270ED0E5C0D6D02C
:1014000030F0DBD020F031F49F3F11F41EF4CBC05C
:101410000EF4E095E7FBC1C0E92FE7D080F3BA17DF
:10142000620773078407950718F071F49EF5FFC0F3
:101430000EF4E0950B2EBA2FA02D0B01B9019001EF
:101440000C01CA01A0011124FF27591B99F0593F33
:1014500050F4503E68F11A16F040A22F232F342F7B
:101460004427585FF3CF469537952795A795F040C9
:101470005395C9F77EF41F16BA0B620B730B840BDE
:10148000BAF09150A1F0FF0FBB1F661F771F881F96
:10149000C2F70EC0BA0F621F731F841F48F48795EE
:1014A00077956795B795F7959E3F08F0B3CF9395DD
:1014B000880F08F09927EE0F97958795089504D027
:1014C0006894B111B5C0089598D088F09F5790F0F6
:1014D000B92F9927B751A0F0D1F0660F771F881F59
:1014E000991F1AF0BA95C9F712C0B13081F09FD098
:1014F000B1E008959CC0672F782F8827B85F39F036
:10150000B93FCCF3869577956795B395D9F73EF4B7
:1015100090958095709561957F4F8F4F9F4F08955F
:10152000E89409C097FB3EF490958095709561957D
:101530007F4F8F4F9F4F9923A9F0F92F96E9BB2733
:101540009395F695879577956795B795F111F8CFAF
:10155000FAF4BB0F11F460FF1BC06F5F7F4F8F4F1A
:101560009F4F16C0882311F096E911C0772321F010
:101570009EE8872F762F05C0662371F096E8862FA8
:1015800070E060E02AF09A95660F771F881FDAF7FF
:10159000880F9695879597F9089597F99F6780E842
:1015A00070E060E008959FEF80EC089500240A94B5
:1015B0001616170618060906089500240A9412162E
:1015C0001306140605060895092E0394000C11F461
:1015D000882352F0BB0F40F4BF2B11F460FF04C00E
:1015E0006F5F7F4F8F4F9F4F089557FD9058440F67
:1015F000551F59F05F3F71F04795880F97FB991F72
:1016000061F09F3F79F0879508951216130614062E
:10161000551FF2CF4695F1DF08C0161617061806BB
:10162000991FF1CF86957105610508940895E89496
:10163000BB2766277727CB0197F908950AD0C4CF37
:10164000B5DF28F0BADF18F0952309F0A6CFABCFAD
:10165000EFCFCBDFA8F39923D9F35523C9F3950F27
:1016600050E0551FAA27EE27FF27BB270024089428
:10167000679520F4E20FF31FB41F0A1E220F331FD9
:10168000441FAA1F6695A9F7779530F4F30FB41F8E
:101690000A1E121E08F46395330F441FAA1F221F4F
:1016A000769599F7879520F4B40F0A1E121E631FD2
:1016B000440FAA1F221F331F8695A9F7862F712D6D
:1016C000602D11249F5750408AF0E1F088234AF0A2
:1016D000EE0FFF1FBB1F661F771F881F91505040E2
:1016E000A9F79E3F510570F058CFA2CF5F3FECF3B2
:1016F000983EDCF3869577956795B795F795E795CE
:101700009F5FC1F7FE2B880F911D9695879597F9DE
:101710000895A1E21A2EAA1BBB1BFD010DC0AA1F32
:10172000BB1FEE1FFF1FA217B307E407F50720F04A
:10173000A21BB30BE40BF50B661F771F881F991FC5
:101740001A9469F760957095809590959B01AC010E
:10175000BD01CF010895EE0FFF1F0590F491E02D1C
:061760000994F894FFCF8C
:101766007B226578706F737572655F6C6576656CE4
:10177600223A22006C6F77006D6F64657261746542
:1017860000686967680076657279686967680065E8
:10179600787472656D650022202C227265616C5F1B
:1017A60064617461223A007D005AFFA120000000A6
:1017B6000002000300000000001A07BF08D7088BCC
:0817C6000652063B051B05005D
:00000001FF
