:1000000063C087C0B3C085C0F3C683C082C081C04F
:1000100080C07FC07EC07DC07CC07BC07AC0120122
:10002000100102000008D0167E0800010102000144
:1000300022034400690067006900730070006100DA
:1000400072006B00200053006500720069006100BF
:100050006C001C0364006900670069007300740091
:1000600075006D0070002E0063006F006D000403CA
:100070000904090243000201008032090400000162
:1000800002020100052400100104240202052406D6
:1000900000010524010301070583030800FF09048B
:1000A0000100020A00000007050102080000070520
:1000B0008102080000010204081020010101010171
:1000C000010038003700E20611241FBECFE5D2E060
:1000D000DEBFCDBF10E0A0E6B0E0E0E3F6E102C095
:1000E00005900D92A03CB107D9F721E0A0ECB0E05B
:1000F00001C01D92A537B207E1F710E0C8ECD0E0CF
:1001000003C02297FE018EDAC63CD107D1F7D3D8BF
:100110008DCA76CFA82FB92F80E090E041E050EA59
:10012000609530E009C02D9182279795879510F052
:1001300084279527305EC8F36F5FA8F30895EADF40
:100140008D939D930895A6E088279927AA9569F035
:100150000197E1F3B399FCCFB39BFECF81E09927E0
:10016000A6B3019611F0A871D9F70895CF93CFB730
:10017000CF93C395B39BE9F7B39B0BC0B39B09C067
:10018000B39B07C0B39B05C0B39B03C0B39B01C027
:10019000D8C00F92DF93C0914C01DD27CD5ADE4FBE
:1001A000012EB39B03C0DF910F90E6CF2F930F93E7
:1001B0001F934F932FEF4F6F06B303FB20F95F930D
:1001C0003F9350E03BE065C016B30126502953FD34
:1001D000C89556B3012703FB25F92F7306B3B1F079
:1001E0005027102713FB26F906B22230F0F000C08A
:1001F00016B3012703FB27F90126502906B2243044
:10020000E8F54F77206816B30000F6CF50274F7DF2
:10021000206206B2102F000000C006B3002650294D
:10022000102713FB26F906B2E2CF4F7B06B32064FA
:1002300000C0DACF01265029187106B269F14E7F4D
:100240002160012F16B328C0002650294D7F06B229
:100250002260102F29C0012650294B7F06B224604E
:10026000012F2DC016B301265029477F28600000BA
:1002700006B22EC04F7E06B3206130C0422706B3BF
:10028000499300265029102706B24FEF13FB20F99F
:10029000297F16B379F2187159F10126502906B257
:1002A000012703FB21F9237F06B371F200265029B1
:1002B0003150D0F006B2102713FB22F9277E16B377
:1002C00051F201265029012703FB06B223F92F7CA6
:1002D00049F2000006B3102713FB24F90026502929
:1002E00006B22F7939F270CF10E21ABF00271CC076
:1002F0003B503195C31BD04010E21ABF0881033C2C
:1003000021F10B3411F120914A011981110F1213BF
:10031000EDCF4A81441F093669F10D3211F0013EDB
:1003200029F74F7009F0042F009351013F915F911D
:100330004F911F910F912F91DF910F90CAB7C5FD7B
:1003400018CFCF91CFBFCF91189520915101222383
:1003500069F310914F011123D1F53430D2F130936C
:100360004F0120934B0110914C013BE0311B309326
:100370004C012FC000914F0101304CF50AE54F7040
:1003800049F43091670034FD25C000936700C3E352
:10039000D1E024C0433049F030913E0134FD1AC011
:1003A00000933E01CFE3D1E019C03091690134FDE3
:1003B00011C000936901CAE6D1E010C0052710E022
:1003C00000C021C0052710E0C89508BB14C03AE55D
:1003D00001C032ED032EC0E0D0E032E017B3186167
:1003E000C39A08B317BB58E120E84FEF20FF052759
:1003F00008BB279517951C3F28F700004552B0F71A
:1004000020FF0527279508BB17951C3FB8F62991B3
:100410003A9561F7077E10915001110F08BBC25049
:10042000D04011F010934A0110E21ABF086017B3D0
:10043000177E402F477E54E05A95F1F708BB17BB53
:1004400048BB74CFCF92DF92EF92FF920F931F932E
:10045000CF93DF9381E080D58C019093C10080938E
:10046000C00081E079D5EC01B801882777FD80953F
:10047000982FBDD723E333E343E35FE344D86B0115
:100480007C01BE01882777FD8095982FB0D72AE997
:1004900039E949E95EE337D89B01AC01C701B601F0
:1004A0000FD72FE135E84BE65EE32DD86DD79B01E2
:1004B0007093C1006093C0006335710514F460E06F
:1004C00007C0AB01435551094B33510528F461E096
:1004D00080E097D560E00EC06E58710966327105F4
:1004E00010F460E004C0203F310571F061E080E06D
:1004F00088D561E081E0DF91CF911F910F91FF904E
:10050000EF90DF90CF907DC5DF91CF911F910F913C
:10051000FF90EF90DF90CF900895CF93DF9361E04D
:1005200080E038D561E081E035D584EC90E09BD364
:10053000C4E0D0E060E080E064D560E081E061D5B7
:1005400068EC70E080E090E0CAD461E080E059D5CA
:1005500060E081E056D568EC70E080E090E0BFD4C8
:1005600060E080E04ED561E081E04BD568EC70E062
:1005700080E090E0B4D461E080E043D561E081E0C8
:1005800040D568EC70E080E090E0A9D460E080E0C5
:1005900038D561E081E035D568EC70E080E090E02E
:1005A0009ED461E080E02DD560E081E02AD568EC42
:1005B00070E080E090E093D460E080E022D560E0DD
:1005C00081E01FD568EC70E080E090E088D421974E
:1005D00009F0B0CFDF91CF91089584EC90E079D30A
:1005E000892B09F449C084EC90E077D3873609F071
:1005F00043C062E770E084EC90E071D58091C00068
:100600009091C100833591051CF466E870E008C044
:100610009C01235531092B33310530F46AE870E031
:1006200084EC90E05CD515C09C012E58310926322F
:10063000310518F467E970E0F3CF9C01245B3109C0
:100640002C33310518F463E970E0EACF803F91055F
:1006500029F76CE970E084EC90E041D56091C0002E
:100660007091C1004AE050E084EC90E002D66CEA60
:1006700070E084EC90E017D644E650E060E070E073
:1006800084EC90E0B8C2DEDEA8CFDF92EF92FF925A
:100690000F931F93CF93DF93C8E0D0E0F12C80E855
:1006A000E82EDF2CDE0CD1BE4EDD8C01043389E058
:1006B00018070CF4FD2CE694219799F78FEF8F0D16
:1006C00081BFCF2DD0E0219681B790E0C817D90720
:1006D0008CF039DD8453994097FF03C09195819543
:1006E00091098017910714F4F1B68C0181B78F5FDF
:1006F00081BFEACFF1BEDF91CF911F910F91FF90A3
:10070000EF90DF9008951F93CF93DF93162FEA01A8
:10071000288124FF05C0298138E82327298302C0C6
:100720002AE528839E012E5F3F4FD901FC01810FEE
:1007300091919D93982F9E1B1916D4F3612FC90197
:10074000FEDC1C5F1883DF91CF911F9108954EE36B
:1007500051E0D9CF49E651E0D6CFCF93DF936091F6
:100760004F01635067FDB2C080914C01CCE0D0E0F6
:10077000C81BD109CD5ADE4F80914B01803118F44E
:10078000CE01F8D29DC08D3209F08BC0683009F0DF
:1007900097C083EC809333018AE5809367001092C1
:1007A000C3008881807619F0CE01C2D267C09A81D9
:1007B00010923C018981811106C010923D012CE309
:1007C00031E082E057C0853019F4909350014FC05A
:1007D0008630A9F58B81813041F48EE190E09093D1
:1007E0004E0180934D0182E126C0823019F4CE0182
:1007F0008AD221C08330F1F4911108C08EE690E0D6
:1008000090934E0180934D0184E015C0913041F4E6
:1008100082E590E090934E0180934D018CE10BC0F6
:10082000923041F480E390E090934E0180934D012B
:1008300082E201C080E090E49093C3001FC0883042
:1008400079F0893019F49093520111C08A3059F02F
:100850008B3069F48BE480933F0180936A0107C079
:1008600022E531E002C02CE331E081E003C02CE35B
:1008700031E080E030934E0120934D018F3F39F4F9
:10088000988197FD8E8190E89093C30007C09F8167
:10089000911104C09E81981708F4892F80936600F7
:1008A0000FC08091C30087FF0BC0CE0161D28F3F84
:1008B00021F48EE18093670003C0811110926600DD
:1008C00080914F01181614F410924F018091670027
:1008D00084FF56C0809166008F3F09F451C0C82F35
:1008E000893008F0C8E08C1B80936600809133014A
:1008F00098E8892780933301CC2389F18091C30044
:1009000087FF08C06C2F84E391E030D2C82F893074
:1009100088F525C040914D0150914E0186FF0BC0D6
:10092000A4E3B1E0FA018C2F8A0F94919D93319644
:100930008A13FBCF09C0DA01E4E3F1E08C2F8E0FBC
:100940009D9191938E13FCCF2FEF2C0F30E02F5FF2
:100950003F4F240F351F30934E0120934D016C2FD4
:1009600084E391E0ECDBCC5FCC3041F08FEF8093FF
:10097000660004C08FEF80936600CEE1C0936700ED
:1009800084E196B3987131F48150D9F710925001F7
:1009900010924A01C1E08111C0E08091C2008C1721
:1009A00039F0C11103C0F89470DE7894C093C2008E
:1009B000DF91CF910895AC9A8BB780628BBF8BE4A7
:1009C00080933F0180936A018AE580933E01809382
:1009D00069010895FC01A081B1816C9380819181AE
:1009E000019691838083268137818217930721F4B2
:1009F00084819581918380832FB7F8948285938534
:100A00000196938782872FBF0895FC01A281B3814D
:100A10008D91B383A28326813781A217B30721F476
:100A200024813581338322839FB7F89422853385CF
:100A300021503109338722879FBF0895F89484EFAE
:100A400090E0909315018093140190931701809387
:100A50001601909319018093180184E191E090931D
:100A60001B0180931A0180E290E090931D01809316
:100A70001C0110921F0110921E01789408952FB747
:100A8000F894FC01808191812FBF08958EE191E05F
:100A9000F6DF892B39F0E0911601F0911701808182
:100AA00090E0089580E090E00895F89488B3877E00
:100AB00088BBBB9A27EA86E99CE0215080409040A1
:100AC000E1F700C00000BB9876DF88EC90E09093DF
:100AD000E9008093E8009093EB008093EA00909304
:100AE000ED008093EC0088EE90E09093EF0080930F
:100AF000EE0020E230E03093F1002093F0001092FD
:100B0000F3001092F20084EF90E09093150180932F
:100B1000140190931701809316019093190180930B
:100B2000180184E191E090931B0180931A013093A6
:100B30001D0120931C0110921F0110921E011092A2
:100B4000C6001092C70078940895CF9306DE82EF16
:100B500090E095DF892B21F0C0912001C93030F160
:100B600080913E0184FF19C08091C700882339F02D
:100B700060E081E291E0EBDD1092C7000EC0609171
:100B80002001662351F081E291E0E1DD10924F01F6
:100B900081E08093C700109220018091C6008823D5
:100BA00009F19091690194FD0EC01CC081E08C0F89
:100BB0008093200188EE90E028DFEC2FF0E0EF5DDD
:100BC000FE4F8083C4CF823021F468E088E690E055
:100BD00003C062E080E790E0BDDD8091C6008150F7
:100BE0008093C600CF910895ECE1F0E13197F1F7E1
:100BF00000C00000AACF4F925F926F927F928F92B7
:100C00009F92AF92BF92CF92DF92EF92FF92CF93DB
:100C1000DF93EC016A017B0132D14B015C011C14B2
:100C20001D041E041F0484F42AD12B013C01C61AA2
:100C3000D70AE80AF90AC80CD91CEA1CFB1CCE0129
:100C4000D3DF53014201EBCFDF91CF91FF90EF90C3
:100C5000DF90CF90BF90AF909F908F907F906F90DC
:100C60005F904F900895CF93DF93EC011EDF44EF28
:100C700051E060E070E0CE01DF91CF91BCCF0F93E7
:100C80001F93CF93DF931F92CDB7DEB78C0182EF16
:100C900090E06983F4DE2091F0003091F1006981E9
:100CA0008217930729F4C8019FDF80E090E00BC012
:100CB00088EE90E08FDE45E050E060E070E0C80133
:100CC0009ADF81E090E00F90DF91CF911F910F911B
:100CD00008958ADF8EE191E0D2CECF93DF93EC01CD
:100CE0008EE191E0CCDE892B29F4CE017DDF80E01E
:100CF00090E006C0CE0178DF84E191E086DE90E0EE
:100D0000DF91CF910895FC018381813049F48EE118
:100D100090E090934E0180934D0180911E000895C4
:100D200082E790E090934E0180934D0183E4089513
:100D3000FC012081322F30763032A1F4FC01818118
:100D400090EE980F923080F0823239F48091C60094
:100D5000811103C082E08093C60027FD03C081E0BB
:100D60008093C70080E008958FEF089587E008958D
:100D700081E008950F931F93CF93DF93162F082FD1
:100D8000EC018C2F801B811780F48EE191E077DEDF
:100D900020911C0130911D018217930721F0688179
:100DA00084E191E017DE2196ECCF8EE191E067DEE1
:100DB000089718F08FEF80934F01DF91CF911F912B
:100DC0000F91089582EB90E09093C5008093C4004A
:100DD000089583B7887F83BF8AB58C7F81608ABD81
:100DE00083B7877F83BF83B7887F836083BF08957E
:100DF00078941F920F920FB60F9211242F933F9366
:100E00008F939F93AF93BF9380912A0190912B0171
:100E1000A0912C01B0912D01309129012CE7230FD5
:100E20002D3728F02FEF230F0196A11DB11D209320
:100E3000290180932A0190932B01A0932C01B09358
:100E40002D0180912E0190912F01A0913001B09140
:100E500031010196A11DB11D80932E0190932F01A8
:100E6000A0933001B0933101BF91AF919F918F91C9
:100E70003F912F910F900FBE0F901F9018952FB795
:100E8000F89460912A0170912B0180912C0190912E
:100E90002D012FBF08953FB7F89480912E019091B6
:100EA0002F01A0913001B09131012FB508B602FE9B
:100EB00005C02F3F19F00196A11DB11D3FBF662748
:100EC000782F892F9A2F620F711D811D911D42E08D
:100ED000660F771F881F991F4A95D1F70895CF9203
:100EE000DF92EF92FF92CF93DF936B017C01D3DF10
:100EF000EB01C114D104E104F10471F0CCDF6C1BEF
:100F00007D0B683E7340A8F381E0C81AD108E10860
:100F1000F108C851DC4FEDCFDF91CF91FF90EF90FA
:100F2000DF90CF900895789480B7806880BF80B7B5
:100F3000806480BF8CB580648CBD8FEF8DBD80B721
:100F4000807F876080BF89B7846089BF42DF86B1B8
:100F5000876086B9379A0895863008F086503091B8
:100F6000320127B1932F9295990F990F907C2F7290
:100F7000922B32FB332730F93295307F932B97B980
:100F800097B1907F982B97B9369A3699FECF84B156
:100F900095B10895CF93DF9390E0FC01EB54FF4FA0
:100FA0002491FC01E554FF4F8491882339F190E0AE
:100FB000FC01ED53FF4FA491B0E0FC01EF53FF4F54
:100FC0008491611106C09FB7F8948C91209582237B
:100FD00013C0623069F4C82FD0E09FB7F8948C91A9
:100FE000322F309583238C938881822B888305C090
:100FF0009FB7F8948C91822B8C939FBFDF91CF91F8
:101000000895A82FB0E0FD01EB54FF4F9491FD012E
:10101000E554FF4FE491EE2311F1811103C08AB52D
:101020008F7304C0813021F48AB58F7C8ABD05C0DE
:10103000843019F48CB58F7C8CBDF0E0EF53FF4FFA
:10104000A491B0E02FB7611105C0F8948C919095F0
:10105000892303C0F8948C91892B8C932FBF08951A
:101060000F931F93CF93DF93EC018B01F8016191F4
:101070008F01662341F0E881F9810190F081E02D34
:10108000CE010995F3CFDF91CF911F910F91089574
:10109000EF92FF920F931F93CF93DF937C018A010E
:1010A000EB01060F171FC017D10751F06991D70147
:1010B000ED91FC910190F081E02DC7010995F3CFEE
:1010C000DF91CF911F910F91FF90EF900895DC0178
:1010D000ED91FC910190F081E02D642F0994DC01E9
:1010E000ED91FC910280F381E02D09944F925F9283
:1010F0006F927F928F929F92AF92BF92CF92DF9228
:10110000EF92FF920F931F93CF93DF93CDB7DEB78C
:10111000A0970FB6F894DEBF0FBECDBF5C0141159E
:10112000510561057105D9F440E350E060E070E0DD
:10113000A0960FB6F894DEBF0FBECDBFDF91CF9162
:101140001F910F91FF90EF90DF90CF90BF90AF90E5
:101150009F908F907F906F905F904F90B8CF8E014F
:101160000F5F1F4FC12CD12C76014801422E512C0C
:10117000612C712C8FEFC81AD80AE80AF80ACB0143
:10118000BA01A30192012AD2CA01F80161938F0129
:10119000A901BC01411551056105710559F7F1E03F
:1011A000CF1AD108E108F108F401EC0DFD1D808192
:1011B0008A3010F440E301C047E3480F552747FD4C
:1011C0005095652F752FC50182DF81E0C81AD108BF
:1011D000E108F108EFEFCE16DE06EE06FE0621F777
:1011E000A0960FB6F894DEBF0FBECDBFDF91CF91B2
:1011F0001F910F91FF90EF90DF90CF90BF90AF9035
:101200009F908F907F906F905F904F900895CF92B6
:10121000DF92EF92FF92CF93DF93EC016A017B01A3
:101220002115310539F4DF91CF91FF90EF90DF90D8
:10123000CF904DCF2A30310591F477FF0FC020E0D9
:1012400030E04DE250E060E070E0E1DFF094E094E7
:10125000D094C094C11CD11CE11CF11C2AE0B70140
:10126000A601CE01DF91CF91FF90EF90DF90CF905C
:101270003DCF9A01AB01662757FD6095762FC7CF0A
:10128000CF93DF93EC014DE050E060E070E01FDFB2
:101290004AE050E060E070E0CE0119DF82E090E0CB
:1012A000DF91CF910895CF93DF93EC0118DFCE014A
:1012B000DF91CF91E5CF37DE30D9E5D9FECF505859
:1012C000BB27AA270ED0E5C0D6D030F0DBD020F067
:1012D00031F49F3F11F41EF4CBC00EF4E095E7FB10
:1012E000C1C0E92FE7D080F3BA17620773078407FC
:1012F000950718F071F49EF5FFC00EF4E0950B2EE3
:10130000BA2FA02D0B01B90190010C01CA01A00157
:101310001124FF27591B99F0593F50F4503E68F1B2
:101320001A16F040A22F232F342F4427585FF3CFF3
:10133000469537952795A795F0405395C9F77EF4C4
:101340001F16BA0B620B730B840BBAF09150A1F00D
:10135000FF0FBB1F661F771F881FC2F70EC0BA0F93
:10136000621F731F841F48F4879577956795B7951B
:10137000F7959E3F08F0B3CF9395880F08F0992713
:10138000EE0F97958795089504D06894B111B5C074
:10139000089598D088F09F5790F0B92F9927B751AA
:1013A000A0F0D1F0660F771F881F991F1AF0BA9529
:1013B000C9F712C0B13081F09FD0B1E008959CC050
:1013C000672F782F8827B85F39F0B93FCCF386951F
:1013D00077956795B395D9F73EF49095809570957C
:1013E00061957F4F8F4F9F4F0895E89409C097FBF9
:1013F0003EF490958095709561957F4F8F4F9F4FEC
:101400009923A9F0F92F96E9BB279395F69587952F
:1014100077956795B795F111F8CFFAF4BB0F11F4F2
:1014200060FF1BC06F5F7F4F8F4F9F4F16C0882399
:1014300011F096E911C0772321F09EE8872F762FCF
:1014400005C0662371F096E8862F70E060E02AF010
:101450009A95660F771F881FDAF7880F96958795FC
:1014600097F9089597F99F6780E870E060E0089524
:101470009FEF80EC089500240A94161617061806AC
:101480000906089500240A94121613061406050688
:101490000895092E0394000C11F4882352F0BB0F19
:1014A00040F4BF2B11F460FF04C06F5F7F4F8F4F7C
:1014B0009F4F089557FD9058440F551F59F05F3FB7
:1014C00071F04795880F97FB991F61F09F3F79F066
:1014D00087950895121613061406551FF2CF4695E8
:1014E000F1DF08C0161617061806991FF1CF86956A
:1014F0007105610508940895E894BB27662777274E
:10150000CB0197F908950AD0C4CFB5DF28F0BADF30
:1015100018F0952309F0A6CFABCFEFCFCBDFA8F320
:101520009923D9F35523C9F3950F50E0551FAA27E6
:10153000EE27FF27BB2700240894679520F4E20FCD
:10154000F31FB41F0A1E220F331F441FAA1F6695E4
:10155000A9F7779530F4F30FB41F0A1E121E08F492
:101560006395330F441FAA1F221F769599F787951D
:1015700020F4B40F0A1E121E631F440FAA1F221F5D
:10158000331F8695A9F7862F712D602D11249F5743
:1015900050408AF0E1F088234AF0EE0FFF1FBB1F96
:1015A000661F771F881F91505040A9F79E3F510535
:1015B00070F058CFA2CF5F3FECF3983EDCF38695F6
:1015C00077956795B795F795E7959F5FC1F7FE2BE0
:1015D000880F911D9695879597F90895A1E21A2E87
:1015E000AA1BBB1BFD010DC0AA1FBB1FEE1FFF1FC7
:1015F000A217B307E407F50720F0A21BB30BE40B17
:10160000F50B661F771F881F991F1A9469F760955D
:101610007095809590959B01AC01BD01CF01089517
:10162000EE0FFF1F0590F491E02D0994F894FFCF81
:10163000000075018000FF5AA12000000000020098
:1016400003007B226578706F737572655F6C6576D9
:10165000656C223A22006C6F77006D6F6465726171
:1016600074650076657279686967680022202C22AB
:101670007265616C5F64617461223A007D000000F4
:1016800000003F063008480869066D0646051E053D
:00000001FF
