:1000000096C0BAC0E6C0B8C09AC5B6C0B5C0B4C044
:10001000B3C0B2C0B1C0B0C0AFC0AEC0ADC02A2B7B
:1000200028000000000000000000000000000000A8
:100030000029000000002C9EB4A0A1A2A434A6A711
:10004000A5AE362D3738271E1F2021222324252632
:10005000B333B62EB7B89F8485868788898A8B8C00
:100060008D8E8F909192939495969798999A9B9C48
:100070009D2F3130A3AD350405060708090A0B0C86
:100080000D0E0F101112131415161718191A1B1C28
:100090001DAFB1B0B505010906A101050719E02999
:1000A000E715002501750195088102950175082560
:1000B00065190029658100C0090222000101008044
:1000C00032090400000103010100092101010001BE
:1000D0002223000705810308000A12011001000015
:1000E0000008C016DB2700010102000110034400D4
:1000F0006900670069004B00650079001C0364001B
:100100006900670069007300740075006D0070007D
:100110002E0063006F006D0004030904010204084F
:10012000102001010101010100380037F3031124FF
:100130001FBECFE5D2E0DEBFCDBF11E0A0E6B0E04C
:10014000ECE0F2E102C005900D92A03AB107D9F7B8
:1001500021E0A0EAB1E001C01D92A73EB207E1F79D
:1001600011E0CEE2D1E003C02297FE0116D8CC32D6
:10017000D107D1F77DD648C843CFA82FB92F80E04B
:1001800090E041E050EA609530E009C02D9182276F
:100190009795879510F084279527305EC8F36F5F99
:1001A000A8F30895EADF8D939D930895A6E088272C
:1001B0009927AA9569F00197E1F3B399FCCFB39B16
:1001C000FECF81E09927A6B3019611F0A871D9F767
:1001D0000895CF93CFB7CF93C395B39BE9F7B39B64
:1001E0000BC0B39B09C0B39B07C0B39B05C0B39BB7
:1001F00003C0B39B01C0D5C00F92DF93C091CA0169
:10020000DD27CF52DE4F012EB39B03C0DF910F904D
:10021000E6CF2F930F931F934F932FEF4F6F06B39C
:1002200003FB20F95F933F9350E03BE065C016B3BA
:100230000126502953FDC89556B3012703FB25F924
:100240002F7306B3B1F05027102713FB26F906B21F
:100250002230F0F000C016B3012703FB27F9012676
:10026000502906B22430E8F54F77206816B3000015
:10027000F6CF50274F7D206206B2102F000000C03D
:1002800006B300265029102713FB26F906B2E2CF49
:100290004F7B06B3206400C0DACF012650291871C5
:1002A00006B269F14E7F2160012F16B328C00026E7
:1002B00050294D7F06B22260102F29C001265029F7
:1002C0004B7F06B22460012F2DC016B301265029A2
:1002D000477F2860000006B22EC04F7E06B3206123
:1002E00030C0422706B3499300265029102706B292
:1002F0004FEF13FB20F9297F16B379F2187159F1EA
:100300000126502906B2012703FB21F9237F06B3FA
:1003100071F2002650293150D0F006B2102713FB9D
:1003200022F9277E16B351F201265029012703FB3B
:1003300006B223F92F7C49F2000006B3102713FB05
:1003400024F90026502906B22F7939F270CF10E235
:100350001ABF002719C03B503195C31BD04010E293
:100360001ABF0881033C09F10B34F9F02091C80150
:100370001981110F1213EDCF4A81441F093651F133
:100380000D3211F0013E29F70093CF013F915F91AB
:100390004F911F910F912F91DF910F90CAB7C5FD1B
:1003A0001BCFCF91CFBFCF9118952091CF012223A2
:1003B00069F31091CD01112379F534307AF130933E
:1003C000CD012093C9011091CA013BE0311B30934C
:1003D000CA0124C00091CD010130F4F40AE54F7048
:1003E00049F43091670034FD1AC000936700C1EBF7
:1003F000D1E019C03091BC0134FD11C00093BC01A3
:10040000CDEBD1E010C0052710E000C021C00527CA
:1004100010E0C89508BB14C03AE501C032ED032EC8
:10042000C0E0D0E032E017B31861C39A08B317BB3D
:1004300058E120E84FEF20FF052708BB27951795C7
:100440001C3F28F700004552B0F720FF05272795ED
:1004500008BB17951C3FB8F629913A9561F7077EBE
:100460001091CE01110F08BBC250D04011F0109373
:10047000C80110E21ABF086017B3177E402F477EED
:1004800054E05A95F1F708BB17BB48BB7FCF8F925A
:100490009F92AF92BF92CF92DF92EF92FF92CF9353
:1004A000DF9300D000D0CDB7DEB790D34B015C0115
:1004B0008CE3C82ED12CE12CF12C88D3C61AD70A94
:1004C000E80AF90AC80CD91CEA1CFB1C69837A8368
:1004D0008B839C8306D269817A818B819C811C14D9
:1004E0001D041E041F041CF44B015C01E6CF0F9099
:1004F0000F900F900F90DF91CF91FF90EF90DF90D2
:10050000CF90BF90AF909F908F9008950F931F93BF
:10051000CF93DF9300D0CDB7DEB78C018091BC01C3
:1005200084FD0CC04A836983DCD180E990E50197A2
:10053000F1F700C0000069814A81F0CFF8014283E1
:10054000638362E0C80102960F900F90DF91CF9114
:100550001F910F91A2C1CF93DF93EC01E62FF0E042
:10056000EA5EFF4F6491262F30E0220F232F221FD7
:10057000330B232B11F040E201C040E06F77CE0136
:10058000C5DF40E060E0CE01C1DF81E090E0DF91B7
:10059000CF910895CF93DF93EC0140E0B7DF40E0C7
:1005A00060E0CE01DF91CF91B1CFFC0182EA91E012
:1005B0009093CC018093CB0180818076803231F49E
:1005C00081818A3019F483818093A40180E00895A9
:1005D000CF93DF9361E080E084D361E081E081D359
:1005E00060E080EA91E0D6DFC8E0D0E060E080E043
:1005F000AFD360E081E0ACD368EC70E080E090E0E5
:1006000015D361E080E0A4D360E081E0A1D368EC81
:1006100070E080E090E00AD360E080E099D361E090
:1006200081E096D368EC70E080E090E0FFD261E07A
:1006300080E08ED361E081E08BD368EC70E080E0F5
:1006400090E0F4D2219791F6DF91CF910895CF9366
:10065000DF9300D000D0CDB7DEB781E024D37C019A
:1006600081E021D38C01B701882777FD8095982FF1
:100670009BD423E333E343E35FE322D56B017C01A7
:10068000B801882777FD8095982F8ED42AE939E91B
:1006900049E95EE315D59B01AC01C701B601EDD375
:1006A0002FE135E84BE65EE30BD54BD46B017C01C3
:1006B0008B014AE0BE016F5F7F4FC60172D568E6CD
:1006C00070E080EA91E0B2D3E2DE60E080EA91E09F
:1006D00061DF03351105BCF460E080E039D360E0F0
:1006E00081E036D365E870E080EA91E09FD3CFDE09
:1006F00060E080EA91E04EDFBE016F5F7F4F80EAED
:1007000091E0AED355C0C60183559109CB97B8F49B
:1007100061E080E01DD360E081E01AD369EB70E016
:1007200080EA91E083D3B3DE60E080EA91E032DFDB
:10073000BE016F5F7F4F80EA91E092D339C0C6015E
:100740008E5891098697B8F460E080E001D361E0AB
:1007500081E0FED261EF70E080EA91E067D397DE3E
:1007600060E080EA91E016DFBE016F5F7F4F80EAB4
:1007700091E076D31DC084EBC81AD1088CE3C8166B
:10078000D104B8F461E080E0E3D261E081E0E0D23E
:1007900065E271E080EA91E049D379DE60E080EAC9
:1007A00091E0F8DEBE016F5F7F4F80EA91E058D3A1
:1007B000FFCF003F1105E1F361E080E0C9D261E0C5
:1007C00081E0C6D26FE571E080EA91E02FD35FDE71
:1007D00060E080EA91E0DEDEBE016F5F7F4F80EA7D
:1007E00091E03ED3E5CF89E991E09093A101809318
:1007F000A001F894BB9A27EA86E99CE0215080404A
:100800009040E1F700C00000BB987FD1789410922F
:10081000A3011092A20162E082EA91E03EC0DF9261
:10082000EF92FF920F931F93CF93DF93C8E0D0E036
:10083000F12C80E8E82EDF2CDE0CD1BEB7DC8C0179
:10084000043389E018070CF4FD2CE694219799F7FE
:100850008FEF8F0D81BFCF2DD0E0219681B790E033
:10086000C817D9078CF0A2DC8453994097FF03C0C6
:100870009195819591098017910714F4F1B68C0137
:1008800081B78F5F81BFEACFF1BEDF91CF911F911A
:100890000F91FF90EF90DF900895CF93C62F209196
:1008A000BC0124FF07C02091BD0138E82327209315
:1008B000BD0103C02AE52093BC01DC01EEEBF1E0B1
:1008C0009C2F9E0F8D918193892F8E1B1816D4F328
:1008D0006C2F8EEB91E066DCCC5FC093BC01CF91B6
:1008E0000895CF93DF938091CD01835087FDA8C0F9
:1008F0009091CA012091C9012D3209F09FC0883022
:1009000009F09CC0CCE0D0E0C91BD109CF52DE4F2A
:1009100083EC8093B1018AE5809367001092A60171
:100920008881807619F0CE0140DE7FC09A811092D6
:10093000BA018981811106C01092BB012AEB31E016
:1009400082E06FC0853019F49093CE0167C0863085
:1009500009F04EC08B81813041F48AED90E0909394
:10096000CC018093CB0182E13FC0823041F488EB1F
:1009700090E09093CC018093CB0182E235C083302C
:10098000F1F4911108C088E191E09093CC0180933B
:10099000CB0184E029C0913041F48CEF90E090933A
:1009A000CC018093CB018CE11FC09230E1F48CEE3E
:1009B00090E09093CC018093CB0180E115C081320F
:1009C00041F48AEC90E09093CC018093CB0189E0D4
:1009D0000BC0823241F485E990E09093CC01809382
:1009E000CB0183E201C080E090E49093A6011DC09A
:1009F000883069F0893019F49093D0010FC08A30A3
:100A000049F08B3059F48BE48093BD0107C020ED91
:100A100031E002C02AEB31E081E003C02AEB31E093
:100A200080E03093CC012093CB019F81911104C0D1
:100A30009E81981708F4892F809366001092CD014B
:100A40008091670084FF46C0809166008F3F09F463
:100A500041C0C82F893008F0C8E08C1B8093660025
:100A60008091B10198E889278093B101CC2331F1BD
:100A70002091CB013091CC018091A60186FF0BC063
:100A8000A2EBB1E0F9018C2F8A0F94919D933196DE
:100A90008A13FBCF09C0D901E2EBF1E08C2F8E0F56
:100AA0009D9191938E13FCCF8FEF8C0F90E0019668
:100AB000820F931F9093CC018093CB016C2F82EB1C
:100AC00091E070DBCC5FCC3019F08FEF8093660043
:100AD000C093670084E196B3987131F48150D9F7DF
:100AE0001092CE011092C801C1E08111C0E0809146
:100AF000A5018C1739F0C11103C0F89490DE7894E9
:100B0000C093A501DF91CF910895AC9A8BB7806215
:100B10008BBF8BE48093BD018AE58093BC0108956F
:100B200083B7887F83BF8AB58C7F81608ABD83B796
:100B3000877F83BF83B7887F836083BF089578945E
:100B40001F920F920FB60F9211242F933F938F9302
:100B50009F93AF93BF938091A8019091A901A09119
:100B6000AA01B091AB013091A7012CE7230F2D37DB
:100B700028F02FEF230F0196A11DB11D2093A7018F
:100B80008093A8019093A901A093AA01B093AB010F
:100B90008091AC019091AD01A091AE01B091AF01F7
:100BA0000196A11DB11D8093AC019093AD01A0935E
:100BB000AE01B093AF01BF91AF919F918F913F91E3
:100BC0002F910F900FBE0F901F9018952FB7F8948C
:100BD0006091A8017091A9018091AA019091AB0147
:100BE0002FBF08953FB7F8948091AC019091AD016B
:100BF000A091AE01B091AF012FB508B602FE05C0BD
:100C00002F3F19F00196A11DB11D3FBF6627782F18
:100C1000892F9A2F620F711D811D911D42E0660F71
:100C2000771F881F991F4A95D1F70895CF92DF92B9
:100C3000EF92FF92CF93DF936B017C01D3DFEB0147
:100C4000C114D104E104F10471F0CCDF6C1B7D0B05
:100C5000683E7340A8F381E0C81AD108E108F108A2
:100C6000C851DC4FEDCFDF91CF91FF90EF90DF9037
:100C7000CF900895789480B7806880BF80B78064F3
:100C800080BF8CB580648CBD8FEF8DBD80B7807FB9
:100C9000876080BF89B7846089BF42DF86B1876083
:100CA00086B9379A0895863008F086503091B001A1
:100CB00027B1932F9295990F990F907C2F72922BB9
:100CC00032FB332730F93295307F932B97B997B1A8
:100CD000907F982B97B9369A3699FECF84B195B10B
:100CE0000895CF93DF9390E0FC01E45EFE4F2491E2
:100CF000FC01EE5DFE4F8491882339F190E0FC0108
:100D0000E65DFE4FA491B0E0FC01E85DFE4F8491EA
:100D1000611106C09FB7F8948C912095822313C06F
:100D2000623069F4C82FD0E09FB7F8948C91322FCD
:100D3000309583238C938881822B888305C09FB74D
:100D4000F8948C91822B8C939FBFDF91CF91089563
:100D5000A82FB0E0FD01E45EFE4F9491FD01EE5D31
:100D6000FE4FE491EE2311F1811103C08AB58F7318
:100D700004C0813021F48AB58F7C8ABD05C08430DF
:100D800019F48CB58F7C8CBDF0E0E85DFE4FA4912A
:100D9000B0E02FB7611105C0F8948C91909589232C
:100DA00003C0F8948C91892B8C932FBF08950F93D7
:100DB0001F93CF93DF93EC018B01F80161918F01B9
:100DC000662341F0E881F9810190F081E02DCE01A8
:100DD0000995F3CFDF91CF911F910F910895EF9275
:100DE000FF920F931F93CF93DF937C018A01EB0156
:100DF000060F171FC017D10751F06991D701ED9168
:100E0000FC910190F081E02DC7010995F3CFDF91AE
:100E1000CF911F910F91FF90EF900895DC01ED911C
:100E2000FC910190F081E02D642F0994DC01ED919B
:100E3000FC910280F381E02D0994CF93DF93EC01C4
:100E40004DE050E060E070E0E9DF4AE050E060E053
:100E500070E0CE01E3DF82E090E0DF91CF91089572
:100E6000CF93DF93EC01E2DFCE01DF91CF91E5CFAD
:100E700001DFAEDBECDBFECF5058BB27AA270ED03C
:100E8000E5C0D6D030F0DBD020F031F49F3F11F434
:100E90001EF4CBC00EF4E095E7FBC1C0E92FE7D00C
:100EA00080F3BA17620773078407950718F071F487
:100EB0009EF5FFC00EF4E0950B2EBA2FA02D0B016E
:100EC000B90190010C01CA01A0011124FF27591B8F
:100ED00099F0593F50F4503E68F11A16F040A22F95
:100EE000232F342F4427585FF3CF46953795279506
:100EF000A795F0405395C9F77EF41F16BA0B620B05
:100F0000730B840BBAF09150A1F0FF0FBB1F661F4B
:100F1000771F881FC2F70EC0BA0F621F731F841F8E
:100F200048F4879577956795B795F7959E3F08F0B4
:100F3000B3CF9395880F08F09927EE0F9795879573
:100F4000089504D06894B111B5C0089598D088F080
:100F50009F5790F0B92F9927B751A0F0D1F0660FA5
:100F6000771F881F991F1AF0BA95C9F712C0B130C0
:100F700081F09FD0B1E008959CC0672F782F88271B
:100F8000B85F39F0B93FCCF3869577956795B395FF
:100F9000D9F73EF490958095709561957F4F8F4F6E
:100FA0009F4F0895E89409C097FB3EF49095809573
:100FB000709561957F4F8F4F9F4F9923A9F0F92F1F
:100FC00096E9BB279395F695879577956795B7959D
:100FD000F111F8CFFAF4BB0F11F460FF1BC06F5F83
:100FE0007F4F8F4F9F4F16C0882311F096E911C095
:100FF000772321F09EE8872F762F05C0662371F0B6
:1010000096E8862F70E060E02AF09A95660F771FC9
:10101000881FDAF7880F9695879597F9089597F9BD
:101020009F6780E870E060E008959FEF80EC08958E
:1010300000240A94161617061806090608950024B7
:101040000A9412161306140605060895092E039431
:10105000000C11F4882352F0BB0F40F4BF2B11F4A5
:1010600060FF04C06F5F7F4F8F4F9F4F089557FD04
:101070009058440F551F59F05F3F71F04795880F06
:1010800097FB991F61F09F3F79F08795089512169D
:1010900013061406551FF2CF4695F1DF08C0161649
:1010A00017061806991FF1CF8695710561050894FA
:1010B0000895E894BB2766277727CB0197F9089511
:1010C0000AD0C4CFB5DF28F0BADF18F0952309F0B5
:1010D000A6CFABCFEFCFCBDFA8F39923D9F355231E
:1010E000C9F3950F50E0551FAA27EE27FF27BB270E
:1010F00000240894679520F4E20FF31FB41F0A1E22
:10110000220F331F441FAA1F6695A9F7779530F465
:10111000F30FB41F0A1E121E08F46395330F441F09
:10112000AA1F221F769599F7879520F4B40F0A1EFF
:10113000121E631F440FAA1F221F331F8695A9F793
:10114000862F712D602D11249F5750408AF0E1F0B9
:1011500088234AF0EE0FFF1FBB1F661F771F881FF3
:1011600091505040A9F79E3F510570F058CFA2CF43
:101170005F3FECF3983EDCF3869577956795B795DE
:10118000F795E7959F5FC1F7FE2B880F911D969508
:10119000879597F90895EE0FFF1F0590F491E02DC4
:1011A0000994BB274A3031F4992322F4BDE290958B
:1011B00081959F4F01C0BB27FB015527AA27880FA8
:1011C000991FAA1FA41710F0A41B83955051B9F7BB
:1011D000A05DAA3308F0A95DA193009779F7B1113A
:1011E000B1931192CB0100C0DC01FC01672F71911A
:1011F0007723E1F7329704C07C916D9370836291FD
:0C120000AE17BF07C8F30895F894FFCFA5
:10120C000000E7018000FF5A2D2D2D2D57656C63D2
:10121C006F6D6520757365204765656B546F792D0F
:10122C002D2D2D0A00555620696E646578202020DE
:10123C00302D320A4578706F737572656C65766502
:10124C006C2020206C6F770A5265616C54696D6557
:10125C00204461746120202000555620696E64651D
:10126C0078202020332D350A4578706F73757265A0
:10127C006C6576656C2020206D6F64657261746599
:10128C000A5265616C54696D65446174612020205B
:10129C0000555620696E646578202020362D370A5B
:1012AC004578706F737572656C6576656C2020205F
:1012BC00686967680A5265616C54696D654461744C
:1012CC006120202000555620696E6465782020200E
:1012DC00382D31300A4578706F737572656C657690
:1012EC00656C202020766572792D686967680A52D2
:1012FC0065616C54696D65446174612020200055F2
:10130C005620696E64657820202031310A4578704A
:10131C006F737572656C6576656C202020657874CA
:10132C0072656D650A5265616C54696D65446174D2
:10133C00612020200000000000AB02D706EF060061
:00000001FF
