:1000000016C025C024C023C0CCC021C020C01FC042
:100010001EC01DC01CC01BC01AC019C018C00102E0
:1000200004081020010101010101003800371124EA
:100030001FBECFE5D2E0DEBFCDBF20E0A0E6B0E03E
:1000400001C01D92AA36B207E1F7D7D169C3D8CF54
:10005000CF93DF9361E080E06AD161E081E067D116
:10006000C8E0D0E061E080E099D161E081E096D124
:1000700068EC70E080E090E0FFD060E080E08ED13E
:1000800061E081E08BD168EC70E080E090E0F4D03A
:1000900061E080E083D160E081E080D168EC70E0D5
:1000A00080E090E0E9D060E080E078D160E081E03D
:1000B00075D168EC70E080E090E0DED0219791F699
:1000C000DF91CF910895CF92DF92EF92FF920F933D
:1000D0001F93CF93DF9381E00CD18C0181E009D194
:1000E000EC01B801882777FD8095982F22D223E371
:1000F00033E343E35FE3A9D26B017C01BE018827B0
:1001000077FD8095982F15D22AE939E949E95EE310
:100110009CD29B01AC01C701B60174D12FE135E837
:100120004BE65EE392D2D2D19B016335710514F4A4
:1001300060E007C0AB01435551094B33510528F42A
:1001400061E080E02BD160E00EC06E58710966322C
:10015000710510F460E004C0203F310531F061E02A
:1001600080E01CD161E081E019D168EC70E080E0B2
:1001700090E0DF91CF911F910F91FF90EF90DF9072
:10018000CF907AC083B7887F83BF8AB58C7F816028
:100190008ABD83B7877F83BF83B7887F836083BF30
:1001A000089578941F920F920FB60F9211242F93F7
:1001B0003F938F939F93AF93BF93809161009091F2
:1001C0006200A0916300B0916400309160002CE760
:1001D000230F2D3728F02FEF230F0196A11DB11DFE
:1001E000209360008093610090936200A09363006D
:1001F000B09364008091650090916600A0916700C3
:10020000B09168000196A11DB11D80936500909387
:100210006600A0936700B0936800BF91AF919F9173
:100220008F913F912F910F900FBE0F901F901895B7
:100230003FB7F8948091650090916600A0916700A7
:10024000B09168002FB508B602FE05C02F3F19F027
:100250000196A11DB11D3FBF6627782F892F9A2FC8
:10026000620F711D811D911D42E0660F771F881F6F
:10027000991F4A95D1F70895CF92DF92EF92FF929E
:10028000CF93DF936B017C01D3DFEB01C114D10469
:10029000E104F10471F0CCDF6C1B7D0B683E734010
:1002A000A8F381E0C81AD108E108F108C851DC4F71
:1002B000EDCFDF91CF91FF90EF90DF90CF90089539
:1002C000789480B7806880BF80B7806480BF8CB529
:1002D00080648CBD8FEF8DBD80B7807F876080BFCD
:1002E00089B7846089BF4EDF86B1876086B9379A47
:1002F0000895863008F086503091690027B1932F19
:100300009295990F990F907C2F72922B32FB332785
:1003100030F93295307F932B97B997B1907F982B16
:1003200097B9369A3699FECF84B195B10895CF9397
:10033000DF9390E0FC01E25EFF4F2491FC01EC5D55
:10034000FF4F8491882339F190E0FC01E45DFF4F79
:10035000A491B0E0FC01E65DFF4F8491611106C0FD
:100360009FB7F8948C912095822313C0623069F472
:10037000C82FD0E09FB7F8948C91322F309583230B
:100380008C938881822B888305C09FB7F8948C91C9
:10039000822B8C939FBFDF91CF910895A82FB0E05F
:1003A000FD01E25EFF4F9491FD01EC5DFF4FE49192
:1003B000EE2311F1811103C08AB58F7304C081301F
:1003C00021F48AB58F7C8ABD05C0843019F48CB5C0
:1003D0008F7C8CBDF0E0E65DFF4FA491B0E02FB7BD
:1003E000611105C0F8948C919095892303C0F8940D
:1003F0008C91892B8C932FBF089562DF29DE63DEF9
:10040000FECF5058BB27AA270ED0E5C0D6D030F07B
:10041000DBD020F031F49F3F11F41EF4CBC00EF47A
:10042000E095E7FBC1C0E92FE7D080F3BA17620778
:1004300073078407950718F071F49EF5FFC00EF45A
:10044000E0950B2EBA2FA02D0B01B90190010C01E4
:10045000CA01A0011124FF27591B99F0593F50F4FC
:10046000503E68F11A16F040A22F232F342F442754
:10047000585FF3CF469537952795A795F04053954C
:10048000C9F77EF41F16BA0B620B730B840BBAF01C
:100490009150A1F0FF0FBB1F661F771F881FC2F787
:1004A0000EC0BA0F621F731F841F48F4879577959B
:1004B0006795B795F7959E3F08F0B3CF9395880F52
:1004C00008F09927EE0F97958795089504D06894C2
:1004D000B111B5C0089598D088F09F5790F0B92F0A
:1004E0009927B751A0F0D1F0660F771F881F991F89
:1004F0001AF0BA95C9F712C0B13081F09FD0B1E0BF
:1005000008959CC0672F782F8827B85F39F0B93FCE
:10051000CCF3869577956795B395D9F73EF490958A
:100520008095709561957F4F8F4F9F4F0895E89408
:1005300009C097FB3EF490958095709561957F4F2B
:100540008F4F9F4F9923A9F0F92F96E9BB279395D9
:10055000F695879577956795B795F111F8CFFAF4E9
:10056000BB0F11F460FF1BC06F5F7F4F8F4F9F4F1A
:1005700016C0882311F096E911C0772321F09EE878
:10058000872F762F05C0662371F096E8862F70E0DE
:1005900060E02AF09A95660F771F881FDAF7880FB8
:1005A0009695879597F9089597F99F6780E870E089
:1005B00060E008959FEF80EC089500240A941616D9
:1005C000170618060906089500240A941216130641
:1005D000140605060895092E0394000C11F48823CF
:1005E00052F0BB0F40F4BF2B11F460FF04C06F5FEB
:1005F0007F4F8F4F9F4F089557FD9058440F551FC1
:1006000059F05F3F71F04795880F97FB991F61F094
:100610009F3F79F087950895121613061406551F0B
:10062000F2CF4695F1DF08C0161617061806991F77
:10063000F1CF86957105610508940895E894BB276C
:1006400066277727CB0197F908950AD0C4CFB5DF85
:1006500028F0BADF18F0952309F0A6CFABCFEFCF83
:10066000CBDFA8F39923D9F35523C9F3950F50E0B5
:10067000551FAA27EE27FF27BB270024089467955C
:1006800020F4E20FF31FB41F0A1E220F331F441F72
:10069000AA1F6695A9F7779530F4F30FB41F0A1EC9
:1006A000121E08F46395330F441FAA1F221F76956C
:1006B00099F7879520F4B40F0A1E121E631F440F8A
:1006C000AA1F221F331F8695A9F7862F712D602D33
:1006D00011249F5750408AF0E1F088234AF0EE0F32
:1006E000FF1FBB1F661F771F881F91505040A9F73F
:1006F0009E3F510570F058CFA2CF5F3FECF3983E7C
:10070000DCF3869577956795B795F795E7959F5FA5
:10071000C1F7FE2B880F911D9695879597F908953F
:04072000F894FFCF7B
:00000001FF
